:020000040800F2
:10000000784D00209D0100082F2B0008F51F0008E7
:100010002D2B0008830300080135000800000000B4
:1000200000000000000000000000000005010008C2
:100030001904000800000000490100082D310008E3
:10004000B7010008B7010008B7010008B7010008B0
:10005000B7010008B7010008B7010008B7010008A0
:10006000B7010008B7010008B7010008B701000890
:10007000B7010008B7010008B7010008B701000880
:10008000B7010008B7010008B7010008B701000870
:10009000B7010008B7010008B7010008B701000860
:1000A000B7010008B7010008B7010008B701000850
:1000B000B7010008B7010008D9310008B7010008EE
:1000C000B7010008B7010008B7010008B701000830
:1000D000B7010008B7010008B7010008B701000820
:1000E00051040008B7010008B7010008DFF810D07C
:1000F00000F0DAF80048004711380008AFF300803C
:10010000784D0020224B19680868B0E8F00F80F3A2
:100110000988BFF36F8F4FF0000080F311884EF015
:100120000D0E70470000000006480068006880F36C
:10013000088862B661B6BFF34F8FBFF36F8F00DFE1
:1001400000BF00BF08ED00E0EFF30980BFF36F8F41
:100150000F4B1A6820E9F00F106008B54FF05000FF
:1001600080F31188BFF34F8FBFF36F8F04F0B4FBA0
:100170004FF0000080F31188BDE808401968086856
:10018000B0E8F00F80F30988BFF36F8F704700BFAE
:10019000AC0F0020EFF30580704700000648804751
:1001A00006480047FEE7FEE7FEE7FEE7FEE7FEE75C
:1001B000FEE7FEE7FEE7FEE7D5310008ED000008A8
:1001C0002DE9F05F0546002092469B46884606468C
:1001D000814640241BE0284641464746224600F01F
:1001E00020F853465A46C01A914110D3114618467A
:1001F000224600F04AF82D1A67EB01084F462246C6
:100200000120002100F041F817EB00094E41201EAB
:10021000A4F10104DFDC484631462A464346BDE8E6
:10022000F09F202A04DB203A21FA02F000217047D7
:1002300021FA02F3D040C2F120029140084319464E
:10024000704740EA01039B0703D009E008C9121F69
:1002500008C0042AFAD203E011F8013B00F8013B80
:10026000521EF9D27047D2B201E000F8012B491EAC
:10027000FBD270470022F6E710B513460A46044643
:100280001946FFF7F0FF204610BD202A04DB203A74
:1002900000FA02F1002070479140C2F1200320FAD9
:1002A00003F3194390407047064C074D06E0E068A1
:1002B00040F0010394E8070098471034AC42F6D3AD
:1002C000FFF718FFE45D0008045E000870B58D18A4
:1002D00010F8014B14F0030201D110F8012B231187
:1002E00006D110F8013B03E010F8016B01F8016B37
:1002F000521EF9D1ABB110F8012B04F00C048A1A8C
:100300000C2C03D0A2EB84129B1C08E010F8014BCC
:10031000A2EB0422F8E712F8014B01F8014B5B1E37
:10032000F9D5A942D4D3002070BD000070B50446B1
:1003300000688168C943C90717D1816821F00101AC
:10034000816000F0F7FA05460AE000BF00F0F2FA1B
:10035000401B022804D920688068C043C00706D02B
:1003600020688068C043C007F0D0002070BDA06A3C
:1003700040F01000A062E06A40F00100E06201205D
:1003800070BDFEE70EB50446002208210A2004F0E5
:1003900046FB02F0B3FD204602F020FE1C4D4FF05C
:1003A000FF31286804F08EFD696820680F398842A3
:1003B000FAD200211022CDE9002102912179C0B2A8
:1003C0000F23144A03F020F92179207810230F22FB
:1003D00003F004FA2168491C216068680F388142E3
:1003E00000D92060204602F0F9FD322004F0A4F884
:1003F000686821680F388142D6D100231A46194611
:10040000286804F0A7FB002004F0BCF8CCE700004B
:1004100084100020B85D0008704700002DE9F0410D
:1004200007460024084E094D08E000BF002356F897
:1004300024001A46394604F043FC641C6868844270
:10044000F4DBBDE8F0810000A8480020381000204F
:1004500010B54FF4806000F067F94FF4006000F0D1
:1004600063F9BDE810404FF4805000F05DB972B6FA
:10047000FEE70000084AFF20D2E90213994209D0A2
:100480000648405C491CCB1701EB536323F07F0304
:10049000C91A9160704700003810002008460020FB
:1004A000F8B50024009490F824202546012A12D0A3
:1004B000012280F824204A681F23072A0DD20668EB
:1004C000776B521E02EB820293409F430B6893406E
:1004D0001F43776319E00220F8BD06680D2A0AD28F
:1004E000376BD21F02EB820293409F430B6893400D
:1004F0001F43376309E0F76A0D3A02EB820293402B
:100500009F430B6893401F43F7620A6807230668FE
:100510000A2A0AD3F7680A3A02EB420293409F4341
:100520008B6893401F43F76008E0376902EB420293
:1005300093409F438B6893401F4337610A68102A9A
:1005400001D0112A20D1124B02689A4217D1936828
:100550001B0219D4936843F40003936009681029BF
:1005600012D10C490C4A0968B1FBF2F101EB81018F
:10057000490000E0491E00910029FBD104E0816A96
:1005800041F020018162012480F824502046F8BD0A
:1005900000240140A80F002040420F002DE9F04147
:1005A0004FF0000704003D467ED0A06A002628B91F
:1005B000E66284F82460204600F07EF82046FFF7CB
:1005C000B5FEA16AC90600D420B1A06A40F01000AF
:1005D000A06269E0A16A21F4885141F00201A162A0
:1005E0006268E169237B0A4347EA43010A43A16841
:1005F0004FF48077B94209D0012907D05FF000019C
:1006000094F814C0BCF1010F02D00AE03946F7E7B4
:10061000F3B1A36A43F02003A362E36A43F001034A
:10062000E3622368D3F804C02CF4694C4CEA010C53
:10063000C3F804C021688B68DFF870C003EA0C03BC
:1006400013438B60A168B9420BD0012909D00CE09B
:10065000DFF85CC0A3690CEB43330B4343F4006148
:10066000DFE7218A0D05A5F580152168CB6A23F403
:1006700070032B43CB62216889680E4B194091426D
:1006800008D1E662A16A21F0020141F00101A162F4
:10069000BDE8F081A06A20F0020040F01000A062E6
:1006A000E06A40F00100E0620120F1E7FDF7E1FFC0
:1006B00000E0FFFFFE0E1FFF00B585B00021009196
:1006C00001910291039100680E49884218D10E48A9
:1006D000816941F400718161816901F400710491C3
:1006E000816941F0040181618069694600F004007C
:1006F00004900820009003200190044800F020F8A6
:1007000005B000BD00240140001002400008014077
:10071000B0F5806F04D0B0F5805F03D102F0FCBB70
:1007200001F0AEBE70470000044910B50A680242ED
:1007300002D00860FFF7ECFF10BD00001404014078
:100740002DE9F84FDFF8B8910024A9F1040B2346F6
:100750000F2709F1040AABF1040EC9E00125A540F9
:100760002A40AA427DD1674ED1F804C0ACEB0608FE
:10077000B44532D014DCBCF1030F3AD009DCBCF133
:10078000000F2AD0BCF1010F1CD0BCF1020F31D1F7
:100790001DE0BCF1110F17D0BCF1120F2AD119E0E6
:1007A000B8F5881F19D006DCB8F5803F15D0B8F52C
:1007B000801F1FD111E0B8F5001F0ED0B8F5041F3F
:1007C00018D10AE0CB6815E0CB681B1D12E0CB689E
:1007D00008330FE0CB680C330CE08B682BB1012B96
:1007E0004FF0080303D0456104E0042302E00561F3
:1007F00000E00023FF2A01D8064601E000F10406CC
:100800004FEA840501D9A5F12005D6F8008007FA42
:1008100005FC28EA0C0803FA05F548EA0508C6F8BD
:1008200000804D68ED0062D5374DAE6946F0010697
:10083000AE61AD6924F0030605F001050095334D66
:1008400006EB050CDCF80850A607360F07FA06F889
:1008500025EA0805DFF8B880404503D14FF00008CD
:1008600017E044E0DFF8AC80404502D14FF00108CA
:100870000FE0DFF8A480404502D14FF0020808E005
:10088000DFF89880404502D14FF0030801E04FF0B7
:10089000040808FA06F848EA0508CCF808804D680C
:1008A000D9F80060ED024D4601D5164300E09643AD
:1008B0002E604D68DAF80060AD02554601D516434A
:1008C00000E096432E604D68DBF80060AD035D46A6
:1008D00001D5164300E096432E604D68DEF80060B7
:1008E000ED03754601D5164300E096432E60641C67
:1008F0000D682A46E5407FF431AFBDE8F88F00006F
:1009000008040140000011100010024000000140E6
:1009100000080140000C014000100140001401409B
:100920008068084000D0012070470AB1016170471B
:100930000904FBE701488068704700009C0F002015
:1009400070B5040025D094F83D00002520B984F846
:100950003C50204600F0E6F9242084F83D00206851
:10096000016821F0010101602068016841F4004143
:1009700001602068016821F40041016000F078FC0A
:100980004D4A6168914201D84C4900E04C49884287
:1009900001D2012070BD4B492368B0FBF1F15E68C4
:1009A00026F03F060E435E606368934206D94FF41B
:1009B000967359434FF47A73B1FBF3F12368491CE2
:1009C0001E6A26F03F06314319626168914210D8D1
:1009D0004900401EB0FBF1F2521CC2F30B02042A84
:1009E00001D2042022E0B0FBF1F0401CC0F30B0068
:1009F0001CE0A268F2B301EBC10303EB0116431E36
:100A0000B3FBF6F35B1C43F480431B0549D092B360
:100A100001EBC10202EB0111401EB0FBF1F0401CE2
:100A2000C0F30B0040F4804040F400402168CA69E4
:100A30004CF6FF739A431043C861D4E90710014391
:100A40002068026822F0C00211430160D4E903016A
:100A500001432068826848F2FF339A431143816062
:100A6000D4E9050108432168CA6822F0FF02104357
:100A7000C86001E00EE016E02068016841F0010165
:100A800001602564202084F83D00256384F83E50F1
:100A9000002070BD01EB4106431EB3FBF6F35B1C67
:100AA000B3E70120C2E701EB4101401EB0FBF1F0CA
:100AB000401CC0F30B00B7E7A086010080841E0035
:100AC00000093D0040420F002DE9F84F1F469046B7
:100AD0008A460446DDF82890FFF72CFF054694F877
:100AE0003D0020287FD1192301224049204600954E
:100AF00001F066FB002876D194F83C00012872D002
:100B0000012084F83C0020680168C90703D101680E
:100B100041F0010101602068016821F40061016079
:100B2000212084F83D00102084F83E000026266431
:100B3000C4F824806785608D20852D48E0622B46AF
:100B40004A465146204601F06DFA90B92068416945
:100B50008069009036E02A464946204601F0D6FBDF
:100B600050B1206C042804D12068016841F4007160
:100B700001600120BDE8F88F606A21680078086193
:100B8000606A401C6062618D491E6185218D491E2D
:100B900089B2218522685369DB435B070BD451B1CD
:100BA00000781061606A401C6062608D401E608544
:100BB000208D401E20852A464946204601F0D4FA61
:100BC0000028CED1208D0028C5D154F83D0B0168F6
:100BD00041F400710160202004F81E09E677667771
:100BE0000020C7E7FFE70220C4E700000200100072
:100BF0000000FFFF2DE9FF4F83B09A46DDE9119712
:100C000093460446DDF84080FFF794FE054694F8CD
:100C10003D0020287FD1192301224049204600951C
:100C200001F0CEFA002876D194F83C00012872D069
:100C3000012084F83C0020680168C90703D10168DD
:100C400041F0010101602068016821F40061016048
:100C5000212084F83D00402084F83E0000262664D0
:100C6000C4F82480A4F82A90608D20852C48E06286
:100C7000CDE9007553465A462046049901F020FA02
:100C800070B930E02A463946204601F03FFB58B1A2
:100C9000206C042804D12068016841F400710160CF
:100CA000012007B0BDE8F08F606A21680078086114
:100CB000606A401C6062218D491E89B22185628D67
:100CC000521E628522685369DB435B070BD469B10E
:100CD00000781061606A401C6062208D401E208593
:100CE000608D401E6085208D0028CBD12A46394674
:100CF000204601F039FA0028CAD154F83D0B0168AA
:100D000041F400710160202004F81E09E67766773F
:100D10000020C6E7FFE70220C3E700000200100042
:100D20000000FFFF10B586B00021009101910291F3
:100D3000039100680F4988421AD10F4CA06940F016
:100D40000800A061A069694600F008000490C02076
:100D5000009012200190032003900848FFF7F0FC58
:100D6000E06940F40010E061E06900F400100490D4
:100D700006B010BD0054004000100240000C0140BD
:100D80000248816802781144816070479C0F0020FE
:100D9000074810B5016841F010010160032000F020
:100DA000A7F80F2000F006F800F050F8002010BD62
:100DB0000020024030B505461F4887B0C16941F0A8
:100DC0000401C161C06906A900F00400009001A8F7
:100DD00000F02EFA0498B0B100F04AFA400017492A
:100DE000174AB0FBF1F11748491E0260416040F21A
:100DF000E7320021C0E903218160816100F02EFD0E
:100E0000040003D015E000F033FAE8E70D4800F0E5
:100E100087FD04000DD11E2000F03CF8102D07D2F4
:100E2000002229461E2000F043F80748056000E034
:100E3000012407B0204630BD0010024040420F00A0
:100E400000080040A8150020A00F00200F4808B59A
:100E5000816941F001018161816901F00101009125
:100E6000C16941F08051C161C069002200F0805029
:100E700000900F21901E00F01BF80548416821F0FA
:100E8000E06141F00071416008BD000000100240C7
:100E900000000140002809DB00F01F020121914001
:100EA0004009800000F1E020C0F800117047000008
:100EB000F0B40E4B1B680C46C3F30223C3F10705C5
:100EC000042D00D90425191D072901D2002300E0B3
:100ED000DB1E012606FA05F1491E214099409E407D
:100EE000761E16403143F0BC02F00BBB0CED00E067
:100EF000064900F0070208684FF6FF03184040EA71
:100F00000220034A10430860704700000CED00E027
:100F10000000FA052DE9F04186B0040004D094F8F1
:100F2000A902002520B108E0012006B0BDE8F0814B
:100F300084F8A852204600F05BF8032084F8A90248
:100F4000206802F0D4FA04F11001142288466846A1
:100F5000FFF777F994E80F0002F0BCFA0227D0BB44
:100F60000021206802F0CAFA002001260EE000BF2E
:100F700000EB800104EBC10181F8296001F8280F22
:100F8000401CCD700D614D61C0B28D6161688142C0
:100F9000EED8002012E000BF00EB800104EBC1019D
:100FA00081F8695181F8680181F86B51C1F8785175
:100FB000C1F87C51401CC0B2C1F8805161688142C7
:100FC000EAD8142241466846FFF73BF994E80F003F
:100FD00002F084FA10B184F8A972A5E784F82450CD
:100FE00084F8A962206802F077FA00209DE70000EB
:100FF00008B500680649884208D10648C16941F42D
:101000000001C161C06900F40000009008BD00004B
:10101000005C0040001002402DE9F84305460078CE
:10102000354CC00754D0E0690026C00008D4E06900
:1010300040F08050E061E069012600F080500090AF
:101040002E480168C90512D40168804641F48071B8
:101050000160FFF76FFC074605E000BFFFF76AFC81
:10106000C01B642823D8D8F80000C005F6D5206A34
:1010700010F4407021D0A98801F4407181421CD045
:10108000206A1F49012220F440700A6000220A6091
:101090002062C00711D0FFF74DFC074641F28838A7
:1010A00008E000BFFFF746FCC11B414502D9032001
:1010B000BDE8F883206A8007F4D5206A696820F4C7
:1010C0004070084320621EB1E06920F08050E0616A
:1010D0002878800705D56068A96820F44040084357
:1010E00060602878C00605D56068E96820F4800053
:1010F000084360600020DBE7001002400070004001
:10110000400442422DE9F0470F46050061D0434EAE
:10111000306800F00700B84209D2306820F00700BC
:1011200038433060306800F00700B84251D1286879
:101130003B4C810712D5400703D5606840F4E0605E
:1011400060602878000703D5606840F460506060F4
:101150006068A96820F0F000084360602878C00744
:1011600028D06868012810D02168022810D089078B
:1011700000292EDA616821F0030101436160FFF765
:10118000D9FB804641F288390DE021688903EFE7F9
:101190008901EDE7FFF7CEFBA0EB0801494502D935
:1011A0000320BDE8F0876068696800F00C00B0EBD0
:1011B000810FEFD1306800F00700B8420BD93068DA
:1011C00020F0070038433060306800F00700B84274
:1011D00001D00120E5E72878400705D56068E96877
:1011E00020F4E060084360602878000706D5606856
:1011F000296920F4605040EAC100606000F058F8AE
:101200006168084AC1F30311515CC840064908608F
:1012100006480068FFF7CEFD0020C2E7002002402C
:10122000001002407A550008A80F0020A00F0020EF
:101230000F2202600C4A536803F0030343605368B3
:1012400003F0F0038360536803F4E063C360526803
:101250004FF4E06303EAD20202610448006800F040
:1012600007000860704700000010024000200240A4
:101270000448054900684968044AC1F30221515CE9
:10128000C8407047A80F0020001002408A5500088F
:101290000448054900684968044AC1F3C221515C09
:1012A000C8407047A80F0020001002408A5500086F
:1012B0000E4A51680E4801F00C03042B11D0082B84
:1012C0000FD10C48C1F38343C903C05C0AD55168F0
:1012D000084AC1F34041921E515C054A5043B0FB9D
:1012E000F1F0704704494843704700000010024085
:1012F00000127A006A55000800093D002DE9F84FF8
:10130000040070D02078C04DC00749D06868C0F391
:101310008100012807D06868C0F38100022809D144
:101320006868C00306D52868800339D5606800283E
:10133000E7D035E06068B0F5803F0BD010B1B0F574
:10134000A02F11D0286820F480302860286820F46D
:10135000802002E0286840F480302860606890B106
:10136000FFF7E8FA06460AE0286840F48020286083
:10137000F0E700BFFFF7DEFA801B642873D8286807
:101380008003F7D50CE0FFF7D5FA064605E000BF6D
:10139000FFF7D0FA801B6428F0D828688003F7D4C0
:1013A00020789A4E80074FF001094FF0000839D598
:1013B000686810F00C0F07D06868C0F3810002283D
:1013C00009D16868C00306D42868800714D520694D
:1013D000012808D110E02069B0B1C6F80090FFF7ED
:1013E000A9FA074605E00AE1FFF7A4FAC01B0228A4
:1013F000C4D828688007F7D52868616920F0F8000C
:1014000040EAC10028600DE0C6F80080FFF792FABC
:10141000074604E0FFF78EFAC01B022823D828688D
:101420008007F7D4207800072CD57948A169D9B175
:10143000C0F80090FFF77EFA074604E0FFF77AFA5B
:10144000C01B02280FD8686A8007F7D571484FF48F
:10145000FA510068B0FBF1F0009000BF0098411E07
:101460000091FAD20EE080E0C0F80080FFF762FA47
:10147000074604E0FFF75EFAC01B022875D8686AC9
:101480008007F7D42078400760D5E8690027C000BE
:1014900008D4E86940F08050E861E869012700F06D
:1014A000805000905C480168C90513D401688346E8
:1014B00041F480710160FFF73DFA824606E000BF0B
:1014C000FFF738FAA0EB0A0064284ED8DBF80000DA
:1014D000C005F5D5E06801280AD008B1052813D069
:1014E000286A20F001002862286A20F0040002E047
:1014F000286A40F001002862E06841F2883B98B118
:10150000FFF718FA82460BE0286A40F004002862D0
:10151000EEE700BFFFF70EFAA0EB0A0159455AD8D3
:10152000286A8007F6D50CE0FFF704FA824605E04A
:10153000FFF700FAA0EB0A0159454CD8286A80074A
:10154000F6D41FB1E86920F08050E861E06988B303
:101550006968C1F38101022944D00228C6F860807D
:1015600004D0FFF7E7F9044638E034E0FFF7E2F98A
:10157000074604E0FFF7DEF9C01B02282BD82868D5
:101580008001F7D4206AB0F5803F05D16868A16872
:1015900020F4003008436860D4E908010843696812
:1015A00021F4741108436860C6F86090FFF7C2F92F
:1015B000044606E025E000BFFFF7BCF9001B022847
:1015C00009D828688001F7D51BE000BFFFF7B2F902
:1015D000001B022802D90320BDE8F88F286880018B
:1015E000F4D40EE00128F7D06868226A00F4803154
:1015F000914204D1616A00F47010884201D0012048
:10160000EAE70020E8E70000001002400000424244
:1016100080044242A80F00200070004070B5040012
:1016200009D0606A002540B125616561A56294F822
:10163000510040B10CE0012070BD6068B0F5827FC0
:10164000F4D0E561F2E784F85050204600F040F80D
:10165000022084F851002068016821F040010160F7
:10166000A088218900F4827001F404410843A18913
:1016700001F400610843217C01F002010843217D4F
:1016800001F001010843218B01F400710843217F1F
:1016900001F03801084394F8201001F0800108435C
:1016A000218D01F40051084321680860A0690421DC
:1016B00001EA1040216848602068C16921F4006196
:1016C000C1616565012084F85100002070BD0000F3
:1016D00030B585B00024009401940294039400680E
:1016E0001449884223D11448816941F480518161B1
:1016F000816901F480510491816941F004018161A3
:1017000080690E4D00F004000490A020009002209B
:1017100001900320039069462846FFF711F8402006
:10172000CDE90004694628460294FFF709F805B0A0
:1017300030BD0000003001400010024000080140B0
:101740007047704710B590F83C20012A22D0012242
:1017500080F83C20CA688C6822F4407222434C68AE
:1017600022F4806222430C6822F4006222430C6956
:1017700022F4805222434C6922F400522243C96968
:10178000002322F480420A4301684A6480F83C3016
:10179000002010BD022010BD70B590F83C20012A39
:1017A00026D0012480F83C40022280F83D200368C6
:1017B0005A689D6822F070060A6832435A600D4BE1
:1017C00002689A4208D0B2F1804F05D00A4B9A4283
:1017D00002D00A4B9A4204D1496825F0800319438C
:1017E000916080F83D40002180F83C10084670BDB3
:1017F000022070BD002C01400004004000080040A1
:1018000010B50446022084F83D002068016A41F2C8
:101810001112114207D1016A9210114203D10168DD
:1018200021F001010160204600F046F8002084F814
:10183000460084F83E0084F83F0084F8400084F8B5
:10184000410084F8420084F8430084F8440084F89E
:10185000450084F83D0084F83C0010BD10B504003C
:1018600003D094F83D0010B107E0012010BD002026
:1018700084F83C00204600F035F8022084F83D0052
:10188000211D206801F0AEFC012084F8460084F898
:101890003E0084F83F0084F8400084F8410084F85A
:1018A000420084F8430084F8440084F8450084F83A
:1018B0003D00002010BD0000084A01680848914220
:1018C00004D1816921F4006181617047B1F1804FD9
:1018D000FBD1C16921F00101C1617047002C0140B9
:1018E0000010024008B50C4A01680C48914207D12B
:1018F000816941F400618161806900F4006009E060
:10190000B1F1804F07D1C16941F00101C161C069E6
:1019100000F00100009008BD002C014000100240C2
:1019200090F83D10012901D001207047022180F874
:101930003D100168CA6842F00102CA6000680B49A4
:10194000884208D0B0F1804F05D00949884202D0C2
:101950000849884204D1816801F00701062903D0B3
:10196000016841F00101016000207047002C014036
:10197000000400400008004070B5044690F83C00A8
:101980000025012817D0012684F83C60022084F845
:101990003D002068826822F0770222F47F42826054
:1019A0000868502838D00DDC20284FD005DC90B3D3
:1019B000102811D14AE0022070BD302846D04028BE
:1019C0000AD13BE060282FD070280DD0B0F5805FA1
:1019D00003D0B0F5005F12D0012584F83D600020EF
:1019E00084F83C00284670BDCB68D1E9012120680D
:1019F00001F03BFC2068816841F0770109E0CB6889
:101A0000D1E90121206801F030FC2068816841F4AF
:101A100080418160E1E719E0CA684968206801F007
:101A2000D9FC5021206806E0CA684968206801F0A6
:101A3000E2FC6021206801F022FCCEE7CA68496818
:101A4000206801F0C7FC40212068F4E722680146C5
:101A50001046F0E7704770B50446006801694FF022
:101A60000005C943890715D4C168C943890711D442
:101A7000E91E0161012020772068806980072046E7
:101A800002D0FFF7E7FF04E000F00EF9204600F077
:101A9000B3F9257720680169C943490717D4C1689C
:101AA000C943490713D46FF0040101610220207774
:101AB0002068806910F4407F204602D0FFF7CAFFFB
:101AC00004E000F0F1F8204600F096F92577206850
:101AD0000169C943090716D4C168C943090712D46B
:101AE0006FF008010161042020772068C069800739
:101AF000204602D0FFF7AEFF04E000F0D5F8204604
:101B000000F07AF9257720680169C943C90617D41E
:101B1000C168C943C90613D46FF0100101610820E0
:101B200020772068C06910F4407F204602D0FFF77C
:101B300091FF04E000F0B8F8204600F05DF9257749
:101B400020680169C943C90708D1C168C943C907E9
:101B500004D1891E0161204600F0D6F92068016990
:101B6000C943090609D4C168C943090605D46FF001
:101B7000800101612046FFF7E3FD20680169C94348
:101B8000490609D4C168C943490605D46FF040012C
:101B90000161204600F0C2F920680169C943890645
:101BA0000BD4C168C943890607D46FF020010161D5
:101BB0002046BDE87040FFF7C4BD70BD70B586B06B
:101BC000002100910191029103910068304B31494D
:101BD0000224314A984211D1886940F0040088619A
:101BE0008869039400F0040004908815CDE900048E
:101BF00069461046FEF7A4FD06B070BD274E284D7D
:101C0000B0F1804F1BD0274A9042F5D1886940F04F
:101C1000080088618869694600F008000490102077
:101C2000CDE9000430460394FEF78AFD686820F48D
:101C3000406040F0E06040F400606860DCE7886984
:101C400040F004008861886900F00400049088690D
:101C500040F0080088618869694600F00800049037
:101C600048F20400CDE9000410460394FEF768FD35
:101C70000820CDE90004694630460394FEF760FD74
:101C8000686820F4407040F0E06040F48070D4E771
:101C9000002C01400010024000080140000C0140EF
:101CA0000000014000040040704770B5044690F801
:101CB0003C0000260D4601280FD0012084F83C008E
:101CC0006AB1042A1DD0082A2FD00C2A3FD0012641
:101CD000002084F83C00304670BD022070BD2068B2
:101CE00001F0D6FA2068816941F00801816120681D
:101CF000816921F004018161206881692A691143A9
:101D000011E0206801F0ECFA2068816941F400617B
:101D100081612068816921F4806181612068816925
:101D20002A6941EA02218161D2E7206801F004FBBF
:101D30002068C16941F00801C1612068C16921F0D2
:101D40000401C1612068C1692A69114311E020685A
:101D500001F01EFB2068C16941F40061C161206887
:101D6000C16921F48061C1612068C1692A6941EAC1
:101D70000221C161ACE710B5040003D094F83D0026
:101D800010B107E0012010BD002084F83C0020467F
:101D900000F01EF8022084F83D00211D206801F0AB
:101DA00021FA012084F8460084F83E0084F83F00C0
:101DB00084F8400084F8410084F8420084F843002D
:101DC00084F8440084F8450084F83D00002010BDEC
:101DD00008B500680649884208D10648C16941F043
:101DE0000201C161C06900F00200009008BD00005E
:101DF00000040040001002407047000010B5044687
:101E0000022249B104290ED0082913D094F84100C8
:101E1000012816D0012010BD94F83E000128F9D108
:101E200084F83E200FE094F83F000128F2D184F8B6
:101E30003F2008E094F840000128EBD184F84020CE
:101E400001E084F841200122206801F001FA0F49E5
:101E50002068884203D1426C42F400424264206808
:101E6000884208D0B0F1804F05D00949884202D09D
:101E70000849884204D1816801F00701062903D08E
:101E8000016841F001010160002010BD002C0140FB
:101E9000000400400008004030B504460D460068CC
:101EA000002201F0D5F9174B41F2111120688A1078
:101EB000984209D1036A0B4206D1036A134203D147
:101EC000436C23F4004343642068036A0B4206D149
:101ED000016A114203D1016821F001010160012072
:101EE0003DB1042D08D0082D09D084F84100002010
:101EF00030BD84F83E00FAE784F83F00F7E784F845
:101F00004000F4E7002C014000680349884201D1F9
:101F1000FEF736BF7047000000080040704770B5FC
:101F2000040004D094F84100002510B106E001201F
:101F300070BD84F84050204600F024F8242084F836
:101F400041002068C16821F40051C160204601F0C1
:101F500065FA2068016921F49041016120684169B6
:101F600021F02A0141612068C16841F40051C1603B
:101F70006564202084F8410084F8420065630020F5
:101F800070BD000030B585B0002400940194029427
:101F9000039400681449884224D11448816941F4AB
:101FA00080418161816901F480410491816941F03E
:101FB0000401816180690E4D00F0040004904FF42B
:101FC000007000900220019003200390694628468B
:101FD000FEF7B6FB2815CDE90004694628460294B1
:101FE000FEF7AEFB05B030BD0038014000100240E6
:101FF00000080140FEE701684A69D24352050FD448
:102000006FF480624A61002140F8301F2022427341
:102010008173026942F0040202610173012070477A
:1020200000207047F8B50446C06A1E460D461746A4
:10203000082807D0012805D010F5803F02D0206B7A
:10204000122804D12068016841F4807101601346B0
:1020500000224FF001112046009600F0B1F840B187
:1020600020680068C00502D54FF40070206403208A
:10207000F8BD2069B0F5804F0ED00620216800EA37
:10208000D51040F0F000086133463A460B4920462F
:1020900000F0DEF878B902E005F0FE0000E0E8B2FA
:1020A00021680861054933463A46891F204600F0F9
:1020B000CFF80028DCD00120F8BD000008000100A6
:1020C0002DE9F843044600680D46DDE908970168EC
:1020D0009846164641F4807101604B4600224FF04D
:1020E00001112046009700F06BF848B120680068A5
:1020F000C00502D54FF4007020640320BDE8F883CA
:10210000216805F0FE0008613B464A461549204615
:1021100000F09EF888B920684169806900903A46CD
:102120004946204600F0F2F848B1206C042804D15A
:102130002068016841F4007101600120DEE7F5B21A
:10214000B8F1010F09D02168300A08613A464946C2
:10215000204600F0DBF80028E7D120680561002068
:10216000CCE700000200010070B516460D4604469B
:102170001EE02046FFF73FFF08B1012070BD681C3C
:1021800016D0FEF7D7FB801BA84200D885B920687F
:102190004069C04340070BD5002044F8300F202190
:1021A0006173A073216941F0200121612073E4E78C
:1021B00020684069C0434007DBD4002070BD0000A8
:1021C0002DE9F047984617460D460446C1F30746E9
:1021D000DDF820902AE000BFB8F1FF3F26D0FEF7DF
:1021E000A9FBA0EB0901414502D8B8F1000F1DD1B0
:1021F0002068012E16D0806925EA00000004000C3A
:1022000012D00020B84211D1002044F8300F202114
:102210006173A073216941F02001216120730120C5
:10222000BDE8F0874069E7E70120EBE72068012E71
:102230000AD0806925EA00000004000C06D00020C6
:10224000B842C9D00020EBE74069F3E70120F7E787
:102250002DE9F047984616460D4604464FF0000912
:102260004FF0200AC1F3074723E020684069C043CC
:10227000400515D42068016841F4007101602168AF
:102280006FF480604861C4F8309084F83DA084F811
:102290003E90216C41F00401216484F83C9021E0DF
:1022A000701C06D0FEF746FBA0EB0800B04203D836
:1022B00016B1012F1FD021E02068012F15D08069B1
:1022C00025EA00000004000C18D000BF44F8309F3D
:1022D00084F80DA084F80E90216941F0200121615D
:1022E00084F80C900120BDE8F087406925EA0000E1
:1022F0000004000CEAD12068406901E02068806990
:1023000025EA00000004000CAFD1ECE770B51646DA
:102310000D4604461EE02046FFF76DFE08B1012081
:1023200070BD681C16D0FEF705FB801BA84200D8C4
:1023300085B920684069C04300060BD5002044F8E9
:10234000300F20216173A073216941F020012161C8
:102350002073E4E720684069C0430006DBD4002016
:1023600070BD00002DE9FE4FDFF8F89000224846CE
:10237000DFF8F4C0D0E90261D9E900400B46341B14
:1023800061EB0001501EB4EB0C0C1546174671F1C1
:10239000000C5ED3DFF8D4804FF0000CB8EB0404DF
:1023A0007CEB010C55D34C46D4E904C1BCEB0606CA
:1023B00061EB03012E4BF31A71F1000349D3DFF8EF
:1023C000B4C00023BCEB06068B4142D300234FF080
:1023D0000309EA4609EB430808F1010C04EBCC01C0
:1023E00004EBC80CD1E90061DCE9008CB6EB08060F
:1023F00061EB0C015206DFF88080120E6D1C4FF06D
:10240000000CB8EB06067CEB010C01D242F0010295
:10241000082D04D10AF80720002215467F1C5B1CFA
:10242000202BD7DB9DF80110C943CBB28DF80130CA
:102430009DF80310C943CAB28DF803209DF800101F
:10244000994203D19DF80230934204D00B4A0021F7
:102450001160BDE8FE8FCDE9011301A8FDF7DEFF95
:102460000020F6E78846002000127A008096980047
:10247000E0673500C03B470340420F0038100020A2
:102480002DE9FC4101F006FF244C254ED4E906233A
:10249000871A61EB030200231D46F61B934100D20D
:1024A0002560C4E906011F4A236802EBC3065B1CD2
:1024B000C6E900012360042B06D0442B02D1FFF7AC
:1024C00051FF2560BDE8FC81D2E90260D2E9003706
:1024D0000146F31A60EB0700134FDF1B70F1000792
:1024E000F0D3DFF848C00027BCEB03038741E9D3F2
:1024F000D2E90402801B62EB01020D49411A72F11C
:102500000001DFD34FEAAC030021181A9141D9D35F
:10251000009568460195FDF781FFD2E7381000204D
:1025200000E1F5058846002000127A0080969800A8
:1025300080841E0010B5002208210A2002F06FFAE4
:1025400002490861BDE8104000F0D8BC38100020F6
:1025500070B5054608480C46D0E90210814202D108
:102560004FF0FF3070BDFDF785FF2870FDF782FF4B
:102570002070002070BD00003810002000F0D8BA94
:1025800000F0EBBA00F0F8BA00F012BB00F040BB6C
:1025900000F048BB00F090BB10B500216B2000F0AC
:1025A00017F800216C2000F013F80921192000F021
:1025B0000FF806211A2000F00BF818211B2000F05C
:1025C00007F818211C2000F003F8002010BD0000BF
:1025D0001CB502238DF804004FF4FA7000900448F3
:1025E0008DF8051001AAD0210068FEF76DFA1CBD18
:1025F0002C1000202DE9F04711484FF424760124D7
:1026000085888046A0F1300904EB440108EB4107BE
:1026100038F81120788802EB420309EB430232219B
:1026200032F8100000F020FCB888B5FBF0F001F0A3
:1026300083FF641CA4B2B442E6D9BDE8F087000071
:10264000300000203EB5002411480094019402940B
:102650000E498460016004730475012505614FF41F
:1026600060214460C161FDF799FF08B1FDF7FFFEED
:102670000320CDE90005694602940548FDF710FFE7
:10268000002801D0FDF7F3FE3EBD0000002401400C
:10269000BC10002010B5FFF77BFFFFF76FFF00F0C5
:1026A0008BFCFFF747FFFFF777FF002107A20846E3
:1026B000FFF770FF084A0021084801F003F90849B4
:1026C0000860BDE8104000F03BBF00005374617229
:1026D00074696E6700000000445500080D30000862
:1026E000980F00202DE9F04786B000244B48009455
:1026F000019402940394816941F010018161816920
:1027000001F010010491816941F02001816181692A
:1027100001F020010491816941F004018161816926
:1027200001F004010491816941F00801816180692F
:102730003B4F00F008004FF400550490002229465A
:102740003846FEF7F2F8DFF8DC9000221321484605
:10275000FEF7EBF8DFF8D0A04FF402480022414624
:102760005046FEF7E2F80095022601250396CDE9D2
:10277000015469463846FDF7E3FF11270097039699
:10278000CDE9015469464846FDF7DAFFCDE9025626
:10279000CDE9006769464846FDF7D2FF03208DE882
:1027A000310069465046FDF7CBFFA80200901F4854
:1027B000CDE9010569465046FDF7C2FF1C4F4FF4B5
:1027C0000260CDE90007694602955046FDF7B8FF63
:1027D0002803CDE90007694602945046FDF7B0FF93
:1027E0004FF48240CDE90004694650460294FDF75B
:1027F000A7FFCDF800800396CDE901546946504605
:10280000FDF79EFF002205212820FEF751FB28201E
:10281000FEF740FB06B0BDE8F08700000010024064
:102820000010014000080140000C01400000311080
:10283000000011100D4810B50B4901600C494160B2
:1028400000214FF480428160C0E90312416181613F
:10285000C1610162FEF774F8002803D0BDE81040A2
:10286000FDF705BE10BD000000540040EC10002034
:10287000A0860100104810B50E4901604FF4827126
:10288000416000218160C1604FF400720161C0E9C4
:1028900005120822C0E90721416281620A21C16252
:1028A000FEF7BCFE002803D0BDE81040FDF7DFBDF9
:1028B00010BD0000003001404011002010B596B05E
:1028C00000240F9410941194129413941C2108A8BE
:1028D0001494FDF7CFFC20216846FDF7CBFC2A4875
:1028E000284901604721C0E9011440F2E731C0E9FD
:1028F00003148021C0E90541FEF7B0FF08B1FDF7E0
:10290000B6FD4FF480500F900FA91F48FFF734F821
:1029100008B1FDF7ACFD1C48FFF72DFA08B1FDF733
:10292000A6FD139413A918481494FEF735FF08B1B7
:10293000FDF79DFD6020089040F2F310CDE90904F9
:102940000B940C940D94002208A90F480E94FFF7E5
:10295000ACF908B1FDF78BFD00944FF40050CDE9C0
:102960000440029401940394694607480794FEF7D3
:10297000E9FE08B1FDF77BFD0348FFF71FF916B02C
:1029800010BD0000002C01409811002010B58EB041
:1029900000240794089409940A940B941C21684617
:1029A0000C94FDF767FC27484FF08041016040F22E
:1029B0006711C0E9011440F2CF71C0E9031480210E
:1029C0008161FEF74BFF08B1FDF751FD4FF48050D8
:1029D000079007A91B48FEF7CFFF08B1FDF747FD99
:1029E0001848FFF7C8F908B1FDF741FD0B940BA992
:1029F00014480C94FEF7D0FE08B1FDF738FD6020B6
:102A0000CDE900040294002269460E480494FFF7C1
:102A10004CF908B1FDF72BFD042269460948FFF780
:102A200044F908B1FDF723FD082269460548FFF780
:102A30003CF908B1FDF71BFD0248FFF7BFF80EB0E7
:102A400010BD0000E011002010B58AB000240794EA
:102A50001C2168460894FDF70DFC184816490160D2
:102A60000721C0E9011440F2E731C0E903148021D5
:102A70008161FFF780F908B1FDF7F9FC079407A918
:102A80000E480894FEF788FE08B1FDF7F0FC6020C0
:102A900000904FF46170CDE90104002269460748B7
:102AA0000494FFF702F908B1FDF7E1FC0348FFF7D2
:102AB00085F80AB010BD0000000400402812002074
:102AC0000C4810B50A4901604FF4E1314160002122
:102AD00081600C22C160C0E904128161C161FFF70D
:102AE0001EFA002803D0BDE81040FDF7C0BC10BDA1
:102AF00000380140701200200B4810B509490160F0
:102B0000082141600221816000218161C16101626F
:102B1000FEF700FA002803D0BDE81040FDF7A7BC7F
:102B200010BD0000005C0040B8120020FEE7FEE788
:102B300010B5A0B0002480216846FDF79BFB002162
:102B4000204600F00DF98021684600F03DF9641C34
:102B5000E4B2082CF3D320B010BD70B50D46044686
:102B600006E020222946204600F0C0F8641CE4B2AA
:102B7000102CF6D370BD000070B50C4D002400BFC2
:102B800004F1B000C0B200F00BF9002000F008F929
:102B9000102000F005F905EBC410802100F014F9B5
:102BA000641CE4B2082CEBD370BD00000842002086
:102BB0002DE9F0478146C81701EB5070C0F3C705F7
:102BC00020F00700081A1844C01DC11700EB51700F
:102BD0009246C0F3C7070024DFF8308011E02E19B9
:102BE000082E0CD209F0FF01F0B200F0B9F809EBA1
:102BF000C6121FFA8AF102EB080000F0E5F8641C27
:102C0000E4B2BC42EBD3BDE8F087000008420020EC
:102C10008023036040200860012010600048704756
:102C20000842002010B50224202000F0B9F8204608
:102C300000F0B6F81F4804703F24A82000F0B0F858
:102C4000204600F0ADF80024D32000F0A9F820467B
:102C500000F0A6F8402000F0A3F8A12000F0A0F8B2
:102C6000C82000F09DF80021084600F063F87F249A
:102C7000812000F095F8204600F092F8A42000F0A2
:102C80008FF8A62000F08CF8D52000F089F880207D
:102C900000F086F88D2000F083F8142000F080F812
:102CA0000021012000F046F8BDE81040AF2000F000
:102CB00077B80000241000202DE9F04117460E4699
:102CC000044600250BE03146204600F00FF8641C56
:102CD000E4B20F2C02D90024B61CF6B26D1C7A5D4A
:102CE000002AF0D12846BDE8F081000070B51646F4
:102CF000C206150E0C46072918D80F2816D82946E3
:102D0000204600F02DF80A48082100EB0610064680
:102D100000F05AF8641CE0B2294600F021F806F1F0
:102D20000800BDE87040082100F04EB870BD0000FA
:102D30009255000870B50C46050001D0012D0ED14A
:102D40000CB1012C0BD1DA2000F02AF8280100EB9D
:102D50004410BDE87040801CC0B200F021B870BDC6
:102D600070B50E4D0C462978022905D1072803D8E5
:102D7000B030C0B200F014F8287802280CD17F2CB3
:102D80000AD804F00F0000F00BF8102000EB14102C
:102D9000BDE8704000F004B870BD000024100020B1
:102DA0001CB500218DF804108DF805004FF4FA7061
:102DB00000900448022301AA78214068FDF784FEB0
:102DC0001CBD0000241000200EB54FF4FA728DE8EF
:102DD000070004480123402278214068FDF70AFFDC
:102DE0000EBD000024100020010004484FF0000137
:102DF000006801D0FFF702B8FFF74EB8341000208A
:102E000070B58CB01C216846FDF734FA4FF4807021
:102E10000225CDE90705002407A91048CDE9094599
:102E2000FDF78EFC0F4E0E484722316815C140F267
:102E3000E732E1E80224802261E8044200F0D2F99E
:102E400060200090049440F2F310CDE901050022C7
:102E500069463068FEF729FF0CB070BD00080140DC
:102E6000002C0140341000202DE9F04188B0884644
:102E700006461C216846FDF7FDF91A4C0021206822
:102E8000FFF70AF82068FEF7BBFC2068164900250A
:102E900001604721C0E90115144F97FBF6F1491E67
:102EA000C0E903158021C0E90551FEF7D7FC602079
:102EB00000900220029097FBF6F0401E00FB08F005
:102EC000642190FBF1F0049501900022694620688E
:102ED000FEF7EBFE00212068FEF790FF08B0BDE88A
:102EE000F081000034100020002C014040420F000F
:102EF000FFF786FFFFF77EFBFCE70000044A5168FE
:102F00000A2904DA034B43F82100491C5160704739
:102F100038100020A84800202DE9FC4101F0BAF942
:102F2000214C06460D46D4E90423801A1F4A61EB62
:102F30000301801A71F1000003D2C4E90465BDE801
:102F4000FC81DFF86C804FF480514046FDF7E8FCCF
:102F50000028F4D0D4E90401321A65EB01030127FB
:102F600014480021FDF72CF9606000B96760012169
:102F70004046FDF7D5FC002820680ED0401C20609C
:102F8000C4E90465206800906068002301901A4637
:102F90006946E06801F094FED1E7401E2060606859
:102FA00040426060ECE700005810002080841E0062
:102FB000000C014000CA9A3B08B50020054B009068
:102FC000A3F1500208210A2001F04DFD0249C8601A
:102FD00008BD000020490020581000203EB50446DE
:102FE00000201021CDE900100290217920780F23D4
:102FF000054A00F009FB2179207803B01023BDE8D1
:1030000030400F2200F0EABB9A5D000886B0002530
:103010002846029501F0B6FAFFF7BAFAFFF7AEFAC2
:10302000FFF788FA00212CA20846FFF7B3FA03A99C
:1030300004A8FFF78DFA0028F9D19DF80C00A82804
:1030400015D0A228F3D102980028F0D0002108461C
:10305000FFF796FA002124A20846FFF79BFA029890
:1030600001F090FA0020FFF7BFFE0295DFE702981B
:1030700090B14FF00001084614B3FFF781FA002128
:103080001CA20846FFF786FA029801F0CFFB002049
:10309000FFF7AAFE0024CAE700210846FFF770FAEE
:1030A000002118A20846FFF775FA02A91920CDE9F8
:1030B00000010023802216A1184801F0F9FF09E061
:1030C000FFF75EFA002116A20846FFF763FA02989E
:1030D00001F02AFB0124AAE757616974696E672031
:1030E000636F6E74726F6C0044656C657465205418
:1030F00061736B0053757370656E64205461736BFC
:1031000000000000437265617465205461736B00B8
:10311000536F756E645461736B000000F12E0008EC
:10312000526573756D65205461736B0010B5502046
:1031300080F31188BFF34F8FBFF36F8F02F024F835
:1031400018B104494FF080500860002080F31188C6
:1031500010BD000004ED00E030B593B028216846B2
:10316000FDF788F814210AA8FDF784F8002401204F
:103170000F9410941194010412948DE8130004909C
:103180004FF4E010CDE90810022507956846FEF7D8
:10319000B5F808B172B6FEE70F20CDE90A054FF485
:1031A0008060CDE90C4002210AA80E94FDF7AAFF29
:1031B00008B172B6FEE712200F904FF40040CDE93F
:1031C00011040FA8FDF728FF002801D072B6FEE712
:1031D00013B030BD704700000148FEF73CBC000052
:1031E000A8150020F0B50268164B174C174D4FF08C
:1031F0008047984205D0B84203D0A04201D0A842EF
:1032000003D122F070064A683243984205D0B84292
:1032100003D0A04201D0A84203D122F44074CA686E
:1032200022434C6922F08002224302608A68C26213
:103230000A688262984201D10969016301214161F2
:10324000F0BD0000002C01400004004000080040D8
:1032500010B501F01F030121046A99408C430462F8
:10326000016A9A401143016210BD10B5846842EAB8
:10327000032224F47F440A432243826010BD826803
:1032800022F070020A4342F007018160704700009B
:1032900030B5036A026A22F0010202624268846960
:1032A00024F073050C682C4323F002058B682B4334
:1032B0000A4DA8420BD123F00805CB6822F44072D6
:1032C0002B434D6923F0040315438A692A43426066
:1032D000846149684163036230BD0000002C0140F5
:1032E00030B5026A036A23F01003036243688469FD
:1032F0000D6824F4E64444EA05248D6822F0200297
:1033000042EA05120B4DA8420ED1CD6822F0800290
:1033100042EA05124D6923F4406343EA85038D694F
:1033200022F0400243EA8503436084614968816377
:10333000026230BD002C014030B5036A026A22F4FB
:10334000807202624268C46923F4007324F073053A
:103350000C682C438D6843EA05230C4DA8420ED11E
:10336000CD6823F4006343EA05234D6922F44052FB
:1033700042EA05128D6923F4806342EA0512426035
:10338000C4614968C163036230BD0000002C014084
:1033900030B5046A026A22F4805202624268C3694C
:1033A0000D6823F4E64343EA05238D6824F40054B2
:1033B00044EA0534064DA84204D14D6922F4804206
:1033C00042EA85124260C36149680164046230BD0B
:1033D000002C014010B5036A046A24F00104046261
:1033E000846924F0F00444EA021423F00A020A4338
:1033F0008461026210BD10B5036A046A24F01004EF
:103400000462846923F0A00324F4704444EA023285
:1034100043EA01118261016210BD000070B50446EB
:1034200000680169E26821F440511143016121699A
:10343000A0680843616908432168CA6841F20C63C7
:103440009A430243CA6020684169A26921F440712D
:10345000114341611E492068884202D1FDF718FFDF
:1034600001E0FDF705FF00EBC00101EB0012606811
:1034700064218000B2FBF0F3B3FBF1F36FF01806A8
:103480007343B2FBF0F5B2FBF0F605EB8305322394
:1034900003EB0515B5FBF1F5B6FBF1F605F0F0050C
:1034A00005EB0615B2FBF0F6B2FBF0F0B0FBF1F065
:1034B0006FF01802504306EB800003EB0010B0FBE6
:1034C000F1F0216800F00F002844886070BD000012
:1034D000003801400020704700207047012120F88B
:1034E000401F00210180818001820846704730F82A
:1034F000401F21F43F4101800020704700207047A9
:10350000FEE70907090E002804DB00F1E02080F83F
:103510000014704700F00F0000F1E02080F8141D47
:10352000704702E008C8121F08C1002AFAD170478C
:103530007047002001E001C1121F002AFBD1704733
:103540002DE9FE43274A111F081FFFF71FF8254CDE
:103550000C3C206100F050F900F03EF901210320FD
:1035600001F040FA0025A8464FF001092060002430
:1035700005EB051616F11006CDE900982701F1B20A
:10358000F8B20823184ACDF8088000F03DF8F1B2EF
:10359000F8B20123082200F021F9641C082CEBDBAF
:1035A0006D1C032DE3DB18250E4BCDE90058444676
:1035B000083380220DA10F4801F07AFD094BCDE9B7
:1035C0000054143380220CA10A4801F071FD054B10
:1035D000CDE900542033802209A1064801F068FD9E
:1035E000BDE8FE8390100020925D00086361723197
:1035F00000000000850300086361723200000000D3
:1036000063617233000000002DE9FF4F93B01F4645
:1036100022991498DDF88080401AC0B20C9008F10D
:103620000700C00809900C98002600F007000B90D6
:1036300014984044C0B20590C4E00C9800EBC6005A
:1036400000F0FF0A0AF10800C0B20A902298A8B15F
:1036500014990A98884256D35E49C968884252D85C
:1036600005998A45FBD8FF2011901498824508D20D
:10367000A0EB0A01FF208840C0B200E0FF201190BB
:1036800007E005990A98884203D9411AFF20C840EB
:10369000F5E750484FEADA0281684A430792159AE3
:1036A00006FB072206920B9A72BBC36881469A45B5
:1036B0002AD24FF0080AB8F1080F00D2C2460024FF
:1036C0001BE013982044C5B2D9F80800854212D2F5
:1036D00006982199204400F0CBFD119953460140F2
:1036E000079800220544D9F80400405D00F0C6FDAB
:1036F000D9F804104855641CE4B2BC42E1D3A8EBED
:103700000A0000F0FF085BE00A9A4446D2084A43E8
:103710000025109251E00B984446C0F10800814604
:103720000F90A04200D9C1461398284400F0FF0B27
:103730002848806883453ED206982199284400F0A5
:1037400097FD1199084023490390C9688A4511D211
:10375000079920485944129140684B460B9A405CA7
:10376000039900F08BFD1B4A129952685054A4EB48
:103770000900C4B2FCB117480A99C26891421AD232
:10378000C9F1080101F0FF09A14500D9A1460F9A2E
:1037900003991048D140109A406893444B4610F862
:1037A0000B00002200F06AFD0A49496801F80B008D
:1037B000A4EB0900C4B26D1CEDB2BD42ABD3A04670
:1037C000761CF6B209988642FFF437AF17B0BDE811
:1037D000F08F000070100020FEF7D4BE70B5054CCD
:1037E0002568002DFCD101252560FEF7CDFE0020C7
:1037F000206070BD70100020044A10B5111F081F12
:10380000FEF7C4FE01491039486010BD8010002049
:10381000FDF7BEFAFFF7A0FCFEF764FFFFF70AF81A
:10382000FEF710FFFFF726F8FFF766F9FFF746F8F7
:10383000FFF7ACF8FFF708F9FFF742F900F006F8D8
:10384000FEF728FF00F01EF8FEE70000EFF305800A
:1038500058B9EFF3108040B909490868022801D02F
:1038600030B109E0EFF3118030B16FF0050070471F
:1038700001200860002070474FF0FF3070470000C3
:10388000FC0F002010B5EFF3058060B9EFF3108056
:1038900048B90B490868022802D0012806D00BE07D
:1038A000EFF3118040B16FF0050010BD02200860F9
:1038B00000F078FF002010BD4FF0FF3010BD000079
:1038C000FC0F0020F0B585B04FEA01034FF0000473
:1038D000EFF305810394A1BBEFF3108189BB21496C
:1038E0000968022902D1EFF3118151BB48B3802648
:1038F00018218DF8104004AD42B3176807B13D465A
:1039000097691FB139467F1E382F02D21779FF07FA
:1039100002D0002005B0F0BD576907B1BE08D2F84B
:1039200008C0BCF1000F0DD0D4685C2C18D312690C
:103930003AB137B18DE806103246294601F0E5FB71
:1039400003900DE0D7685FB912694AB903AACDE9BF
:103950000012B2B2294601F0ABFB012800D003945B
:103960000398D7E7FC0F00202DE9F041134C0F46D8
:10397000054666692068001D00F0AEFC681C07D192
:1039800037B12168BDE8F0410D48091D00F0F4BCD5
:1039900020683544B5424560216805D2A068BDE87D
:1039A000F041091D00F0D0BC6068091D00F0CCFC9E
:1039B000206B854200D22563BDE8F081AC0F00206A
:1039C000E01A00202DE9F041054600F0E1FC2D4C05
:1039D0002069401C206120682B4F10B1E06930B392
:1039E0002BE025602069012827D1002606EB860000
:1039F00007EB800000F09AFC761C382EF6D32348A3
:103A000000F094FC2148143000F090FC1F4828304E
:103A100000F08CFC1D483C3000F088FC1B48503006
:103A200000F084FC194860601430A06005E0206854
:103A3000E96AC06A884200D82560E06A401CE062FA
:103A40006864E86AA169884200D9A06100EB80003F
:103A500007EB8000291D00F08FFC00F0B9FCE06945
:103A600000280CD02068E96AC06A884207D2084959
:103A70004FF080500860BFF34F8FBFF36F8FBDE8EA
:103A8000F0810000AC0F002030160020901A0020BA
:103A900004ED00E038B500F07BFC104CA068C8B91C
:103AA0000F4800F043FC0E48143000F03FFC0C4877
:103AB0002060143060600A4B00202833009003F12E
:103AC000540210210A2000F0CEFFA06010B105A121
:103AD00000F0FCFCBDE8384000F07ABCE80F0020A4
:103AE000F41A0020546D72510000000030B4026CD2
:103AF0000B46002A0BD0C1681144C1604468A14242
:103B000001D30168C16030BC1846FCF79ABB30BCD9
:103B100070472DE9F041856B174604460026026C7C
:103B200082B1C7B1E068FCF78CFBE168206C091A30
:103B3000E1602268914202D26168081AE060022FB7
:103B400016D017E02068A8B9606801F081FB06462E
:103B5000002060600EE0A068FCF773FB216CA06899
:103B60000844A0606168884204D32068A06001E036
:103B700005B16D1E6D1CA5633046BDE8F08110B522
:103B8000044690F8590058B101280CD002280FD0F3
:103B9000502080F31188BFF34F8FBFF36F8FFEE784
:103BA000206B00F029FC2046BDE8104000F024BC4A
:103BB00010BD000010484FF4FA51420706D0C01D56
:103BC0000D4920F00700411AC1F5FA510B4A0023B4
:103BD0000144C2E900030839103A21F007011160DD
:103BE0004B600B600B1AC0E9001393604FF000406C
:103BF0005360D06070470000C822002010100020E1
:103C0000144E154CA6F29C474FF08058DFF84C90AC
:103C100012E000BF00F0BCFBF068C568281D00F092
:103C20005BFB2069401E2061E068401EE06000F000
:103C3000CFFB2846FFF7A3FFE0680028EAD13868E9
:103C40000128F9D9C9F80080BFF34F8FBFF36F8FF8
:103C5000F2E70000CC1A0020AC0F002004ED00E0D9
:103C600070B51D46049C61B1C4F80020C4E90F0181
:103C70000121204600F02AFF84F850500020A06463
:103C800070BD2460F2E72DE9F0470E46DDE90984B6
:103C90001746824691009946089DA522206BFCF7A5
:103CA000E2FA6FF00301206B01EB8701084420F07A
:103CB0000707780707D0502080F31188BFF34F8F94
:103CC000BFF36F8FFEE72218315C82F83410315C4D
:103CD00011B1401C1028F6D3002684F84360382D1B
:103CE00000D33725E562C4E91356201D00F029FBF7
:103CF00004F1180000F025FB2461C5F1380064626E
:103D0000A061666584F858604A465146384600F01E
:103D10009DFA2060B8F1000F01D0C8F80040BDE85E
:103D2000F087000030B5114900E011460A68824270
:103D3000FBD34B685C18844203D140681844486048
:103D4000084643681C18944209D1084C103C24686A
:103D5000A24209D052681A4442600A68126802609E
:103D6000814200D0086030BD0460F9E710100020E7
:103D700070B5002441600B4D0061914206D8D11A04
:103D80008269914206D2011D686807E09A4203D217
:103D9000994201D3012403E0011D286800F0D4FA00
:103DA000204670BDE80F002010B5044600F0F0FA80
:103DB000A06B28B15FF0000400F00AFB204610BDA4
:103DC0000124F9E773B500260098846C5CB1A26BFE
:103DD000E06B82420FD3502080F31188BFF34F8FE6
:103DE000BFF36F8FFEE7502080F31188BFF34F8F32
:103DF000BFF36F8FFEE7A26B82420CD294F945505D
:103E00000A4669462046FFF784FE0646681C04D031
:103E10006D1C84F8455030467CBD606A0028FAD09D
:103E200004F1240001F090FA0028F4D00126F2E712
:103E300030B589B0304D55E00498002806DADDE948
:103E40000601059A9047049800284BDB069C6069A0
:103E500010B1201D00F040FA02A800F0B9F80246A7
:103E600004980A283ED2DFE800F00505053D263714
:103E700005053D260598A169034601442046FFF744
:103E800077FF00B3616A20468847E069012829D19D
:103E9000002000900598A169002342181946204689
:103EA00001F01CFB78B9502080F31188BFF34F8FCD
:103EB000BFF36F8FFEE70598A06128B18118134604
:103EC0002046FFF755FF0DE0502080F31188BFF327
:103ED0004F8FBFF36F8FFEE794F82C0010B9204688
:103EE00000F08AFA002204A9A86800F04FFF002819
:103EF000A2D109B030BD0000E80F00202DE9FC413F
:103F00000F46054600F0E0FC01A800F061F8044609
:103F1000019818B101F050FABDE8FC81224EAFB112
:103F200070680068A8B30027291B3A46B06800F003
:103F3000E1FA01F041FA0028EED11C494FF080501F
:103F40000860BFF34F8FBFF36F8FE5E7A542EBD853
:103F500001F032FA30682746C068C468201D00F0BE
:103F6000BBF9E069012810D1A0692B4641193A46F6
:103F70002046FFF7FDFE40B10020034601460090B9
:103F80002A46204601F0AAFA20B1616A20468847F5
:103F9000C2E707E0502080F31188BFF34F8FBFF3D3
:103FA0006F8FFEE70127BFE7E80F002004ED00E078
:103FB00006484168096829B14168C968C968496803
:103FC000016370474FF0FF31FAE70000AC0F0020AB
:103FD00070B5054601F0D2F8064E044630698442B9
:103FE00003D200F009F8012000E0002028602046FC
:103FF000346170BDE80F0020F8B5194D1FE0C068AE
:10400000C4680668201D00F067F9616A2046884789
:10401000E069012813D1A0693044B04206D9246177
:104020006060211D286800F08FF908E00020034639
:10403000014600903246204601F050FA38B1286817
:1040400001680029DBD16968C5E90010F8BD50207E
:1040500080F31188BFF34F8FBFF36F8FFEE700002F
:10406000E80F002008484068401C4FF0500080F3E3
:10407000118804D0BFF34F8FBFF36F8FFEE7BFF3FC
:104080004F8FBFF36F8FFEE718100020002150B153
:104090000A4B42699A420FD1806AA3F128029042EA
:1040A0000AD040B108E0502080F31188BFF34F8F51
:1040B000BFF36F8FFEE7012108467047E01A00202A
:1040C000074C2068016841B1C0680021D0F80000A9
:1040D000FFF714FFFFF7ACFEF3E701210020F7E73D
:1040E000E80F00202DE9F041044600F051F994F961
:1040F000455004F1240610E0A06C20B100212046B8
:10410000FFF760FE04E0606A48B1304601F01CF938
:1041100008B100F087FA6D1E6DB2002DECDC4FF097
:10412000FF3684F8456000F053F900F031F994F956
:10413000445004F1100709E0206948B1384601F005
:1041400003F908B100F06EFA6D1E6DB2002DF3DCBC
:1041500084F84460BDE8F04100F03AB92DE9F0413F
:104160000546002700F0B0FB314E306808B9FFF774
:1041700021FDF06805424BD1C5B3083568070ED064
:1041800005F00700C0F108000544680707D050207B
:1041900080F31188BFF34F8FBFF36F8FFEE72DB30E
:1041A0007068854234D82248103001460C6801E01E
:1041B00020460C466168A94202D221680029F7D145
:1041C00031688C4224D00768216801606068083734
:1041D000411B10290FD96019420708D0502080F3E5
:1041E0001188BFF34F8FBFF36F8FFEE710E0416080
:1041F0006560FFF797FD61687068401A7060B2688B
:10420000904200D2B060F06801430020C4E9000190
:1042100001F0D2F8780707D0502080F31188BFF35F
:104220004F8FBFF36F8FFEE73846BDE8F081000087
:10423000001000200449086818B10868026D521C7B
:104240000265086870470000AC0F002010B5031F1E
:104250004FF080741C601B1F21F001011960191FB1
:10426000024B0B60143940380A6010BD65400008ED
:104270000078002901D0C043C0B2704710B50124B6
:104280009C40641E21409440A04391400143C8B229
:1042900010BD00002DE9F0410D4CFCF74BFB2268EE
:1042A0000023516AD26A0B4DA0FB054703FB05753D
:1042B00000FB0355074FA1FB070C03FB07C701FBDE
:1042C0000371FBF77DFF00196941BDE8F081000033
:1042D000A815002040420F00D0E9013201699A6020
:1042E000D0E901235A604A68824201D182684A605B
:1042F000002202610868401E0860086870470000DC
:10430000034B036003F15C0008608020106070477D
:10431000101C0020044B036003F15C0008604FF4A4
:1043200080701060704700006C1E002000F10801D2
:104330004FF0FF32C0E90112C1600161002101604C
:10434000704700210161704730B50B685A1C02D0DC
:1043500000F1080202E0026904E022465468256880
:104360009D42FAD953684B6099608A605160086138
:104370000168491C016030BD42684A6093688B60E7
:1043800093685960916008610168491C0160704739
:10439000502080F31188BFF34F8FBFF36F8F0A490E
:1043A0004868401C486001280CD10848006810F09B
:1043B000FF0F07D0502080F31188BFF34F8FBFF35A
:1043C0006F8FFEE7704700001810002004ED00E03A
:1043D0000849486828B1401E486001D180F311881F
:1043E0007047502080F31188BFF34F8FBFF36F8F5A
:1043F000FEE700001810002070B5002827D0144DEB
:10440000A0F108046168E868014207D1502080F3F8
:104410001188BFF34F8FBFF36F8FFEE722683AB169
:10442000502080F31188BFF34F8FBFF36F8FFEE7EB
:104430008143616000F048FA606869680844686018
:104440002046FFF76FFCBDE8704000F0B5BF70BDBF
:10445000001000204FF0E02000210161816105493A
:104460004FF47A720968B1FBF2F1491E41610721EC
:1044700001617047A80F002010B5FBF78BFE1149B2
:1044800010280ED300F1E02090F8F0030A78904253
:1044900007D2502080F31188BFF34F8FBFF36F8F87
:1044A000FEE709480068896800F4E060884207D99F
:1044B000502080F31188BFF34F8FBFF36F8FFEE75B
:1044C00010BD0000181000200CED00E010B5084BE6
:1044D000002200BF53F832401CB1521C082AF9D305
:1044E00010BD43F8321003EBC201486010BD00005C
:1044F000F015002070B515460E460446FFF748FF3C
:1045000094F944100020491C01D184F8440094F926
:104510004510491C01D184F84500FFF759FFA06BF5
:1045200028B92A46314604F1240000F099F82046C3
:10453000BDE87040FFF7D6BD10B5020014D00F489B
:10454000806B38B1502080F31188BFF34F8FBFF3D9
:104550006F8FFEE700F0B8F900211046FFF704FA6C
:1045600000F02AFF002807D105494FF0805008606D
:10457000BFF34F8FBFF36F8F10BD0000AC0F002053
:1045800004ED00E070B50546FFF702FF1E4C05B9CB
:104590002568281DFFF7A0FEA86A18B105F11800CC
:1045A000FFF79AFEE06A401CE0622068854207D16E
:1045B000291D1648FFF7E0FEE068401CE06007E0B8
:1045C0002069401E20612846FFF7D9FAFFF7F0FC6A
:1045D000FFF7FEFEE069002814D02068854211D163
:1045E000A06B38B1502080F31188BFF34F8FBFF319
:1045F0006F8FFEE706494FF080500860BFF34F8F82
:10460000BFF36F8F70BD0000AC0F0020CC1A0020EC
:1046100004ED00E002498A6A02604969416070471E
:10462000AC0F00200149012048627047AC0F002008
:1046300010B50C4650B1094909681831FFF784FEDE
:104640002046BDE810400121FFF78EB9502080F3CD
:104650001188BFF34F8FBFF36F8FFEE7AC0F0020C1
:1046600070B514460D4668B10A4909681831FFF75C
:1046700083FE0CB14FF0FF3521462846BDE870405F
:10468000FFF772B9502080F31188BFF34F8FBFF34B
:104690006F8FFEE7AC0F002070B504003ED0226D96
:1046A000A2B1E06C884200D30146E06A884235D06E
:1046B000012A33D11A4D2A6894420FD1502080F339
:1046C0001188BFF34F8FBFF36F8FFEE7502080F349
:1046D0001188BFF34F8FBFF36F8FFEE7E162A269CE
:1046E000002A02DBC1F13801A1610E4E00EB80000F
:1046F000616906EB8000814210D1201DFFF7ECFDBF
:10470000E06AA969884200D9A86100EB800006EB45
:104710008000211DBDE87040FFF72EBE70BD000077
:10472000AC0F00203016002070B504002AD01A4DBE
:10473000286884422ED0FFF72BFE2046FFF7A6FC08
:10474000E0B1201DFFF7C8FDE06AA969884200D9E1
:10475000A861124900EB800001EB8000211DFFF7EA
:104760000BFEE06A2968C96A884207D30C494FF0FA
:1047700080500860BFF34F8FBFF36F8FBDE870406C
:10478000FFF726BE502080F31188BFF34F8FBFF391
:104790006F8FFEE770BD0000AC0F002030160020C8
:1047A00004ED00E030B587B00024039405AA04A905
:1047B00003A80494FFF7A4FDDDE903010094CDE90B
:1047C0000110002315A11748059A00F09EFC164D14
:1047D000002868631FD000F051FE012809D0401C5A
:1047E00019D1502080F31188BFF34F8FBFF36F8F23
:1047F000FEE7502080F31188BFF34F8FBFF36F8F18
:104800004FF0FF3028630120E8616C6107B0BDE81C
:10481000304000F093B807B030BD000049444C452B
:1048200000000000013C0008AC0F002070B50446F9
:10483000FFF7AEFD214D04B92C68201DFFF74CFD9C
:10484000A06A18B104F11800FFF746FD211D1C48AD
:10485000FFF792FD94F858000026012801D184F852
:104860005860FFF7B5FDE86928B1FFF791FDFFF744
:104870009FFBFFF7ADFD2868844213D1E86990B132
:10488000A86B38B1502080F31188BFF34F8FBFF36E
:104890006F8FFEE70B494FF080500860BFF34F8FDA
:1048A000BFF36F8F70BD064800682969884201D147
:1048B0002E6070BDBDE8704000F00EB8AC0F002057
:1048C000E01A002004ED00E00248816B491C81637E
:1048D00070470000AC0F0020164810B5816B11B175
:1048E0000121416210BD002141628169124A01E04B
:1048F000B9B1491E01EB810352F82330002BF7D0E8
:1049000001EB810302EB830202F1080453685B6848
:104910005360A34201D15B685360DA680260816131
:1049200010BD502080F31188BFF34F8FBFF36F8FFE
:10493000FEE70000AC0F0020301600201CB5264911
:1049400008780190FF20087008788DF800009DF825
:1049500000009DF8002000F0F000904207D05020A9
:1049600080F31188BFF34F8FBFF36F8FFEE79DF881
:1049700000001A4B00F0500018700720986005E006
:104980009DF8002052008DF80020401E9DF8002068
:104990001206F5D49860032807D0502080F31188C0
:1049A000BFF34F8FBFF36F8FFEE74FF440709860F7
:1049B000019808700A48016841F4700101600168BB
:1049C00041F070410160FFF745FD00205860FBF7A2
:1049D000ABFB00201CBD000000E400E0181000202C
:1049E00020ED00E010B50C4648B184420FD95020AC
:1049F00080F31188BFF34F8FBFF36F8FFEE7502016
:104A000080F31188BFF34F8FBFF36F8FFEE7022251
:104A1000002100F004F8002800D0846310BDF8B530
:104A200017460E46050014D0DEB105FB06F05430E3
:104A3000FFF794FB04000AD0002084F8460004F13C
:104A400054023B46314628460094FFF709F92046B8
:104A5000F8BD502080F31188BFF34F8FBFF36F8FE5
:104A6000FEE70020E3E738B5049D18B153B1CAB1A1
:104A700081B120E0502080F31188BFF34F8FBFF346
:104A80006F8FFEE7502080F31188BFF34F8FBFF385
:104A90006F8FFEE7502080F31188BFF34F8FBFF375
:104AA0006F8FFEE739B1502080F31188BFF34F8F2D
:104AB000BFF36F8FFEE754241C46012384F8463071
:104AC0002B460094FFF7CCF8204638BD70B50D4654
:104AD000040025D0FFF75CFCD4E90F20216802FB1D
:104AE000001161600021A1632168A1600A46D4E938
:104AF0000F01401E00FB0121E16021464FF0FF3015
:104B000001F8440F487004F110008DB1FFF70EFC5E
:104B100004F12400FFF70AFCFFF75AFC012070BDE6
:104B2000502080F31188BFF34F8FBFF36F8FFEE7E4
:104B300021690029F0D000F007FC0028ECD00449DE
:104B40004FF080500860BFF34F8FBFF36F8FE3E7E4
:104B500004ED00E02DE9FF4782B01D468A464FF084
:104B60000008040003D0BAF1000F08D011E0502073
:104B700080F31188BFF34F8FBFF36F8FFEE7206C78
:104B800038B1502080F31188BFF34F8FBFF36F8F80
:104B9000FEE7022D0AD1E06B012807D0502080F3F8
:104BA0001188BFF34F8FBFF36F8FFEE700F0D8FA85
:104BB000424F4FF000094FF0805648B9049838B181
:104BC000502080F31188BFF34F8FBFF36F8FFEE744
:104BD000FFF7DEFBA06BE16B884207D3022D05D007
:104BE000049808B3B8F1000F21D025E02A465146B9
:104BF0002046FEF78EFFA16C21B129462046FFF723
:104C0000E1F805E0616A19B104F1240000F09CFBB1
:104C100020B13E60BFF34F8FBFF36F8FFFF7D8FB1C
:104C2000012006B0BDE8F087FFF7D2FB22E068461E
:104C3000FFF7F0FC4FF00108FFF7CAFBFFF744FE57
:104C4000FFF7A6FB94F94400401C01D184F844907E
:104C500094F94500401C01D184F84590FFF7B8FB5A
:104C600004A9684600F0EAF930B12046FFF73AFAA5
:104C700000F0A2FB0020D4E7FFF78AFBA06BE16BFA
:104C8000884213D1FFF7A4FB04F110000499FFF749
:104C9000CFFC2046FFF726FA00F08EFB002897D1C4
:104CA0003E60BFF34F8FBFF36F8F91E7FFF790FB2D
:104CB0002046FFF717FA00F07FFB89E704ED00E0DC
:104CC0002DE9F047984617468946040003D0B9F10C
:104CD000000F08D011E0502080F31188BFF34F8FF0
:104CE000BFF36F8FFEE7206C38B1502080F311883E
:104CF000BFF34F8FBFF36F8FFEE7B8F1020F0AD1FA
:104D0000E06B012807D0502080F31188BFF34F8F4C
:104D1000BFF36F8FFEE7FFF7AFFB5020EFF3118675
:104D200080F31188BFF34F8FBFF36F8FA06BE16BE0
:104D3000884207D3B8F1020F04D0002086F311880F
:104D4000BDE8F08794F94550424649462046FEF7B3
:104D5000E0FE681C04D06D1C84F845500120EDE78E
:104D6000A06C012520B141462046FFF72BF806E054
:104D7000606A0028F2D004F1240000F0E5FA00286F
:104D8000ECD0002FEAD03D60E8E700002DE9F747BE
:104D9000002683B08A46040003D0BAF1000F08D081
:104DA00011E0502080F31188BFF34F8FBFF36F8F56
:104DB000FEE7206C38B1502080F31188BFF34F8F8D
:104DC000BFF36F8FFEE700F0CBF9DFF8F4804FF010
:104DD00000094FF0805748B9059838B1502080F34A
:104DE0001188BFF34F8FBFF36F8FFEE7FFF7D0FA45
:104DF000A56BC5B151462046FEF778FE6D1EA56332
:104E0000206950B104F1100000F09EFA28B1C8F8F2
:104E10000070BFF34F8FBFF36F8FFFF7D9FA0120F8
:104E200006B0BDE8F087059808B11EB106E0FFF7AF
:104E3000CFFA27E06846FFF7EDFB0126FFF7C8FA37
:104E4000FFF742FDFFF7A4FA94F94400401C01D19A
:104E500084F8449094F94500401C01D184F84590B1
:104E6000FFF7B6FA05A9684600F0E8F800282046E2
:104E70000AD0FFF737F900F09FFA2046FEF794FFBB
:104E80000028B3D00020CBE7FEF78EFF90B104F1ED
:104E900024000599FFF7CCFB2046FFF723F900F02B
:104EA0008BFA0028A2D1C8F80070BFF34F8FBFF370
:104EB0006F8F9BE72046FFF715F900F07DFA95E725
:104EC00004ED00E02DE9F343002683B004003546ED
:104ED00009D0206C78B1502080F31188BFF34F8F38
:104EE000BFF36F8FFEE7502080F31188BFF34F8F21
:104EF000BFF36F8FFEE700F033F9DFF83C814FF02E
:104F000000094FF0805748B9049838B1502080F319
:104F10001188BFF34F8FBFF36F8FFEE7FFF738FAAB
:104F2000A06BC8B1401EA063206810B9FFF782F9DA
:104F30006060206950B104F1100000F005FA28B15A
:104F4000C8F80070BFF34F8FBFF36F8FFFF740FAC1
:104F5000012005B0BDE8F083049808B166B10FE008
:104F60003DB1502080F31188BFF34F8FBFF36F8F97
:104F7000FEE7FFF72DFA5DE06846FFF74BFB0126E1
:104F8000FFF726FAFFF7A0FCFFF702FA94F94400B6
:104F9000401C01D184F8449094F94500401C01D193
:104FA00084F84590FFF714FA04A9684600F046F823
:104FB0000028204612D0FFF795F800F0FDF92046B2
:104FC000FEF7F2FE0028A9D09DB3FFF7E1F9606A71
:104FD00050B3206B0068C0F1380126E0FEF7E4FE14
:104FE000E0B1206838B9FFF7D3F9606800F070F9D4
:104FF0000546FFF7EDF904F124000499FFF718FBCB
:105000002046FFF76FF800F0D7F9002886D1C8F8DE
:105010000070BFF34F8FBFF36F8F7FE72046FFF71E
:1050200061F800F0C9F979E700216068FFF734FB07
:105030009FE7FFE700208CE704ED00E02DE9F04159
:105040000C46050011D0C4B1FFF7A2F9174B5A69FD
:105050006E682068911B471C17D02F689B6A9F427F
:1050600019D0964217D8012410E0502080F31188FF
:10507000BFF34F8FBFF36F8FFEE7502080F311888F
:10508000BFF34F8FBFF36F8FFEE70024FFF7A0F948
:105090002046BDE8F081884205D9401A20602846A4
:1050A000FFF7B8FAF1E700202060DCE7AC0F002042
:1050B0002DE9FF5F8346DDE90E87994616468A464D
:1050C0009000FFF74BF805001CD05C20FFF746F876
:1050D000040014D00020256384F85900CDE9024073
:1050E000CDE900874B46324651465846FEF7CBFD88
:1050F0002046FEF767FC012004B0BDE8F09F28467B
:10510000FFF77AF94FF0FF30F6E7F0B585B0DDE94B
:105110000B640A9DA6B1DCB15C27009726630226CA
:1051200084F85960002604AFCDE90246CDE9005766
:10513000FEF7A9FD2046FEF745FC049805B0F0BD3A
:10514000502080F31188BFF34F8FBFF36F8FFEE7BE
:10515000502080F31188BFF34F8FBFF36F8FFEE7AE
:105160000548C16919B1806B18B100207047012052
:105170007047022070470000AC0F002001484069D2
:1051800070470000AC0F00202DE9F0412E4C0027A5
:10519000A06B40B1206A401C2062606A00B1012708
:1051A0003846BDE8F0816669761C666113D1606897
:1051B000006838B1502080F31188BFF34F8FBFF3E0
:1051C0006F8FFEE76068A1686160A060A06A401C04
:1051D000A062FEF7EDFE206BDFF87080864209D3F7
:1051E0006068006880B16068C068C56868688642A9
:1051F0000DD220632068C06A00EB800158F82100BE
:105200000128CAD90127C8E74FF0FF30F1E7281D70
:10521000FFF762F8A86A18B105F11800FFF75CF80B
:10522000E86AA169884200D9A06100EB800108EB1F
:105230008100291DFFF7A0F8E86A2168C96A884241
:10524000CED30127CCE70000AC0F002030160020A1
:1052500070B504004FF0000133D01B4D2868844224
:1052600007D0502080F31188BFF34F8FBFF36F8FAB
:10527000FEE7206D38B1401E2065E36CE26A9A4279
:105280001FD040B11DE0502080F31188BFF34F8F35
:10529000BFF36F8FFEE7201DFFF71EF8E06CE062A2
:1052A000C0F13800A061E06AA969884200D9A8610C
:1052B000064900EB800001EB8000211DFFF75CF840
:1052C0000121084670BD0000AC0F00203016002000
:1052D00070B504004FF000002BD0194DE16A2A6828
:1052E000D26A914226D2A069002804DB2868C06AED
:1052F000C0F13800A061134E01EB8101606906EB3B
:105300008101884211D1201DFEF7E6FF2868C06A9E
:10531000E062A969884200D9A86100EB800006EB31
:105320008000211DFFF728F802E02868C06AE062CB
:10533000012070BDE16C2A68D26A9142F8D370BD39
:10534000AC0F00203016002070B5C068C46854B19E
:1053500004F118000646FEF7BFFF144DA86B50B1CC
:105360003146134815E0502080F31188BFF34F8F6A
:10537000BFF36F8FFEE7201DFEF7AEFFE06AA9695D
:10538000884200D9A8610B4900EB800001EB800046
:10539000211DFEF7F1FFE06A2968C96A884202D937
:1053A0000120686270BD002070BD0000AC0F0020BD
:1053B000B81A0020301600202DE9F0472C4D0024AB
:1053C0002746A86B38B1FEF7E3FFA86B401EA86321
:1053D000A86B40B146E0502080F31188BFF34F8F97
:1053E000BFF36F8FFEE72969224E0120D1B3A6F5E6
:1053F000916980463068E0B1F068C46804F1180033
:10540000FEF76AFF201DFEF767FFE06AA969884280
:1054100000D9A86100EB800109EB8100211DFEF796
:10542000ABFFE06A2968C96A8842E3D3C5F82480E3
:10543000E0E70CB1FEF7BCFD2C6A4CB14FEA080660
:10544000FFF7A2FE00B16E62641EF9D1002028624F
:10545000686A38B10849012738070860BFF34F8FE1
:10546000BFF36F8FFEF7B4FF3846BDE8F08700004A
:10547000AC0F0020B81A002004ED00E010B586B093
:10548000FEF708FB114CA068B8B10020039004900F
:1054900005AA04A903A8FEF73DFFDDE903210220C8
:1054A0008DE8070000230AA10B48059AFFF72DFE9F
:1054B000E06010B106B0012010BD502080F31188CB
:1054C000BFF34F8FBFF36F8FFEE70000E80F0020A0
:1054D000546D722053766300C14000082DE9FF41EE
:1054E0001E46134602000A9D4FF0000016D0144CD1
:1054F000A768002F0FD0CDE900130292062917DA12
:10550000FFF72EFE02284FF000030FD0002269465D
:10551000A068FFF71FFB04B0BDE8F081502080F3C6
:105520001188BFF34F8FBFF36F8FFEE72A46EEE778
:105530000023324669463846FFF7C2FBEBE700001E
:10554000E80F0020D85D0008000000000000000007
:105550000000000000000000000200001800000031
:10556000000000000000000001020203040506071D
:1055700008090A0B0C0D0E0F1010000000000000AF
:1055800000000102030406070809000000000102F0
:105590000304000000000000000000000000000004
:1055A000000000FE020202020202003F2020202032
:1055B00020200000000000000000000000000000AB
:1055C000000000FE020202020202003F2020202012
:1055D000202000FE020202020202003F20202020C2
:1055E000202000FE020202020202003F20202020B2
:1055F000202000FE020202020202003F20202020A2
:10560000202000FE020202020202003F2020202091
:10561000202000FE020202020202003F2020202081
:10562000202000000000000000000000000000003A
:10563000000000000000000000000000000000006A
:10564000000000000000000000000000000000005A
:10565000000000FE020202020202003F2020202081
:10566000202000FE020202020202003F2020202031
:10567000202000FE020202020202003F2020202021
:10568000202000FE020202020202003F2020202011
:10569000202000FE020202020202003F2020202001
:1056A000202000FE020202020202003F20202020F1
:1056B000202000FE020202020202003F20202020E1
:1056C000202000FE020202020202003F20202020D1
:1056D000202000FE020202020202003F20202020C1
:1056E000202000FE020202020202003F20202020B1
:1056F000202000FE020202020202003F20202020A1
:10570000202000FE020202020202003F2020202090
:10571000202000FE020202020202003F2020202080
:10572000202000FE020202020202003F2020202070
:10573000202000FE020202020202003F2020202060
:10574000202000FE020202020202003F2020202050
:105750002020000000000000000000000000000009
:105760000000000000000000000000000000000039
:105770000000000000000000000000000000000029
:105780000000000000000000000000000000000019
:105790000000000000000000000000000000000009
:1057A0000000000000F800000000000000330000CE
:1057B000000000100C02100C0200000000000000AD
:1057C00000000040C07840C0780000043F04043F5F
:1057D000040000708888FC08300000182020FF2199
:1057E0001E00F008F0806018000000310C031E213C
:1057F0001E0000F00888700000001E21232C1927CD
:10580000211000120E000000000000000000000047
:105810000000000000E0180402000000000718204B
:10582000400000020418E0000000004020180700BB
:105830000000404080F0804040000202010F010261
:10584000020000000000E0000000000101010F0163
:105850000101000000000000000000907000000046
:105860000000000000000000000000010101010133
:1058700001000000000000000000003030000000C7
:10588000000000000000C03804000060180700009D
:10589000000000E010080810E000000F10202010A9
:1058A0000F0000001010F8000000000020203F2032
:1058B0002000007008080808F00000302824222189
:1058C00030000030080808887000001820212122CC
:1058D0001C000000804030F8000000060524243F32
:1058E000242400F888888808080000192020201146
:1058F0000E0000E0108888900000000F112020208A
:105900001F0000180808886818000000003E010009
:1059100000000070880808887000001C22212122E5
:105920001C0000F008080810E000000112222211FB
:105930000F00000000C0C000000000000030300078
:1059400000000000008000000000000000E00000F7
:105950000000000080402010080000010204081030
:10596000200000404040404040000002020202028D
:1059700002000008102040800000002010080402EF
:1059800001000070480808887000000000303700EF
:105990000000C030C828E810E000071827282F288A
:1059A00017000000C038E0000000203C230202275E
:1059B000382008F8888888700000203F20202011B7
:1059C0000E00C030080808083800071820202010F2
:1059D000080008F808080810E000203F20202010E8
:1059E0000F0008F88888E8081000203F20202320B6
:1059F000180008F88888E8081000203F20000300FD
:105A00000000C03008080838000007182020221EB7
:105A1000020008F808000008F808203F21010121D1
:105A20003F20000808F8080800000020203F202040
:105A3000000000000808F8080800C08080807F008F
:105A4000000008F888C028180800203F20012638E8
:105A5000200008F8080000000000203F202020203F
:105A6000300008F8F800F8F80800203F013E013F38
:105A7000200008F830C00008F808203F2000071870
:105A80003F00E01008080810E0000F102020201050
:105A90000F0008F808080808F000203F2101010164
:105AA0000000E01008080810E0000F10282830500F
:105AB0004F0008F8888888887000203F2000030C79
:105AC0003020007088080808380000382021212282
:105AD0001C00180808F8080818000000203F2000E3
