:020000040800F2
:100000007020002021020008971700083F13000805
:10001000951700086B040008C51A000800000000CE
:10002000000000000000000000000000890100083E
:100030006D04000800000000CD010008C719000889
:100040003B0200083B0200083B0200083B0200089C
:100050003B0200083B0200083B0200083B0200088C
:100060003B0200083B0200083B0200083B0200087C
:100070003B0200083B0200083B0200083B0200086C
:100080003B0200083B0200083B0200083B0200085C
:100090003B0200083B0200083B0200083B0200084C
:1000A0003B0200083B0200083B0200083B0200083C
:1000B0003B0200083B020008411A00083B0200080E
:1000C0003B0200083B0200083B0200083B0200081C
:1000D0003B0200083B0200083B0200083B0200080C
:1000E0003B0200083B0200083B02000800F002F857
:1000F00000F03AF80AA090E8000C82448344AAF188
:100100000107DA4501D100F02FF8AFF2090EBAE885
:100110000F0013F0010F18BFFB1A43F0010318473B
:100120005039000070390000103A24BF78C878C1F7
:10013000FAD8520724BF30C830C144BF04680C60ED
:10014000704700000023002400250026103A28BF35
:1001500078C1FBD8520728BF30C148BF0B60704739
:100160001FB51FBD10B510BD00F045F91146FFF7D2
:10017000F7FF01F0B8FC00F063F903B4FFF7F2FFFA
:1001800003BC00F06BF90000224B19680868B0E866
:10019000F00F80F30988BFF36F8F4FF0000080F3FA
:1001A00011884EF00D0E70470000000006480068F0
:1001B000006880F3088862B661B6BFF34F8FBFF363
:1001C0006F8F00DF00BF00BF08ED00E0EFF3098094
:1001D000BFF36F8F0F4B1A6820E9F00F106008B55E
:1001E0004FF0500080F31188BFF34F8FBFF36F8F34
:1001F00002F008FB4FF0000080F31188BDE80840D2
:1002000019680868B0E8F00F80F30988BFF36F8FB2
:10021000704700BF14000020EFF305807047000016
:100220000948804709480047FEE7FEE7FEE7FEE78A
:10023000FEE7FEE7FEE7FEE7FEE7FEE704480549C6
:10024000054A064B704700003F1A0008ED00000801
:10025000701A002070200020701C0020701C0020EC
:10026000032A40F2308010F0030C00F0158011F8E2
:10027000013BBCF1020F624498BF11F801CB00F8BA
:10028000013B38BF11F8013BA2F1040298BF00F80E
:1002900001CB38BF00F8013B11F0030300F0578099
:1002A000083AC0F0088051F8043B083A51F804CBF2
:1002B000A0E80810F5E7121D5CBF51F8043B40F8B8
:1002C000043BAFF30080D20724BF11F8013B11F8C3
:1002D00001CB48BF11F8012B24BF00F8013B00F807
:1002E00001CB48BF00F8012B704702F0FF0343EA3F
:1002F000032242EA024200F05EB84FF0000200B56D
:10030000134694469646203922BFA0E80C50A0E838
:100310000C50B1F12001BFF4F7AF090728BFA0E8E6
:100320000C5048BF0CC05DF804EB890028BF40F8B2
:10033000042B08BF704748BF20F8022B11F0804FF4
:1003400018BF00F8012B704770477047704710B511
:10035000203AC0F00B80B1E81850203AA0E81850BD
:10036000B1E81850A0E81850BFF4F5AF5FEA027C7E
:1003700024BFB1E81850A0E8185044BF18C918C0ED
:10038000BDE810405FEA827C24BF51F8043B40F88E
:10039000043B08BF7047D20728BF31F8023B48BF73
:1003A00011F8012B28BF20F8023B48BF00F8012BB1
:1003B00070474FF000020429C0F0128010F0030CC7
:1003C0003FF49DAFCCF1040CBCF1020F18BF00F854
:1003D000012BA8BF20F8022BA1EB0C01FFF78FBF68
:1003E0005FEAC17C24BF00F8012B00F8012B48BF55
:1003F00000F8012B7047754600F02CF8AE4605005A
:100400006946534620F00700854618B020B5FFF72F
:1004100015FFBDE820404FF000064FF000074FF0F9
:1004200000084FF0000B21F00701AC46ACE8C00912
:10043000ACE8C009ACE8C009ACE8C0098D4670471B
:1004400010B50446AFF300802046BDE81040FFF72A
:1004500094BE0000004870470C1A00200149182083
:10046000ABBEFEE7260002007047FEE7704772B69B
:10047000FEE700002DE9F84FDFF8B8910024A9F15C
:10048000040B23460F2709F1040AABF1040EC9E05F
:100490000125A5402A40AA427DD1674ED1F804C06B
:1004A000ACEB0608B44532D014DCBCF1030F3AD0F3
:1004B00009DCBCF1000F2AD0BCF1010F1CD0BCF14B
:1004C000020F31D11DE0BCF1110F17D0BCF1120F9A
:1004D0002AD119E0B8F5881F19D006DCB8F5803F9D
:1004E00015D0B8F5801F1FD111E0B8F5001F0ED050
:1004F000B8F5041F18D10AE0CB6815E0CB681B1DC6
:1005000012E0CB6808330FE0CB680C330CE08B684B
:100510002BB1012B4FF0080303D0456104E0042305
:1005200002E0056100E00023FF2A01D8064601E051
:1005300000F104064FEA840501D9A5F12005D6F89B
:10054000008007FA05FC28EA0C0803FA05F548EADA
:100550000508C6F800804D68ED0062D5374DAE69DC
:1005600046F00106AE61AD6924F0030605F0010511
:100570000095334D06EB050CDCF80850A607360F46
:1005800007FA06F825EA0805DFF8B880404503D1E8
:100590004FF0000817E044E0DFF8AC80404502D19E
:1005A0004FF001080FE0DFF8A480404502D14FF082
:1005B000020808E0DFF89880404502D14FF00308B8
:1005C00001E04FF0040808FA06F848EA0508CCF8FC
:1005D00008804D68D9F80060ED024D4601D51643FC
:1005E00000E096432E604D68DAF80060AD02554693
:1005F00001D5164300E096432E604D68DBF800609D
:10060000AD035D4601D5164300E096432E604D686C
:10061000DEF80060ED03754601D5164300E0964311
:100620002E60641C0D682A46E5407FF431AFBDE8BA
:10063000F88F000008040140000011100010024073
:100640000000014000080140000C01400010014082
:10065000001401400AB1016170470904FBE7000082
:1006600001488068704700000400002070B5040055
:1006700025D094F83D00002520B984F83C50204650
:1006800000F0E6F9242084F83D002068016821F09C
:10069000010101602068016841F4004101602068A7
:1006A000016821F40041016000F080FB4D4A61685F
:1006B000914201D84C4900E04C49884201D20120C6
:1006C00070BD4B492368B0FBF1F15E6826F03F0630
:1006D0000E435E606368934206D94FF496735943A4
:1006E0004FF47A73B1FBF3F12368491C1E6A26F0BC
:1006F0003F06314319626168914210D84900401E9B
:10070000B0FBF1F2521CC2F30B02042A01D2042006
:1007100022E0B0FBF1F0401CC0F30B001CE0A2682B
:10072000F2B301EBC10303EB0116431EB3FBF6F377
:100730005B1C43F480431B0549D092B301EBC1021B
:1007400002EB0111401EB0FBF1F0401CC0F30B00A6
:1007500040F4804040F400402168CA694CF6FF73C1
:100760009A431043C861D4E9071001432068026826
:1007700022F0C00211430160D4E903010143206863
:10078000826848F2FF339A4311438160D4E905013E
:1007900008432168CA6822F0FF021043C86001E0E4
:1007A0000EE016E02068016841F001010160256457
:1007B000202084F83D00256384F83E50002070BD61
:1007C00001EB4106431EB3FBF6F35B1CB3E70120CC
:1007D000C2E701EB4101401EB0FBF1F0401CC0F349
:1007E0000B00B7E7A086010080841E0000093D00D1
:1007F00040420F002DE9F84F1F4690468A460446B6
:10080000DDF82890FFF72CFF054694F83D002028DE
:100810007FD11923012240492046009500F076FE41
:10082000002876D194F83C00012872D0012084F889
:100830003C0020680168C90703D1016841F001014B
:1008400001602068016821F400610160212084F8C2
:100850003D00102084F83E0000262664C4F8248061
:100860006785608D20852D48E0622B464A465146BB
:10087000204600F07DFD90B92068416980690090B4
:1008800036E02A464946204600F0E6FE50B1206C8C
:10089000042804D12068016841F40071016001203E
:1008A000BDE8F88F606A216800780861606A401CC2
:1008B0006062618D491E6185218D491E89B2218545
:1008C00022685369DB435B070BD451B10078106198
:1008D000606A401C6062608D401E6085208D401EF5
:1008E00020852A464946204600F0E4FD0028CED166
:1008F000208D0028C5D154F83D0B016841F40071EA
:100900000160202004F81E09E67766770020C7E71B
:10091000FFE70220C4E70000020010000000FFFF14
:100920002DE9FF4F83B09A46DDE9119793460446BF
:10093000DDF84080FFF794FE054694F83D0020283E
:100940007FD11923012240492046009500F0DEFDA9
:10095000002876D194F83C00012872D0012084F858
:100960003C0020680168C90703D1016841F001011A
:1009700001602068016821F400610160212084F891
:100980003D00402084F83E0000262664C4F8248000
:10099000A4F82A90608D20852C48E062CDE900758E
:1009A00053465A462046049900F030FD70B930E0B5
:1009B0002A463946204600F04FFE58B1206C0428E4
:1009C00004D12068016841F400710160012007B082
:1009D000BDE8F08F606A216800780861606A401C99
:1009E0006062218D491E89B22185628D521E628509
:1009F00022685369DB435B070BD469B1007810614F
:100A0000606A401C6062208D401E2085608D401E03
:100A10006085208D0028CBD12A463946204600F03B
:100A200049FD0028CAD154F83D0B016841F400711A
:100A30000160202004F81E09E67766770020C6E7EB
:100A4000FFE70220C3E70000020010000000FFFFE4
:100A500010B586B0002100910191029103910068C8
:100A60000F4988421AD10F4CA06940F00800A061DC
:100A7000A069694600F008000490C0200090122090
:100A80000190032003900848FFF7F4FCE06940F46C
:100A90000010E061E06900F40010049006B010BDA1
:100AA0000054004000100240000C014002488168E0
:100AB000027811448160704704000020074810B597
:100AC000016841F010010160032000F0A7F80F2039
:100AD00000F006F800F050F8002010BD00200240A1
:100AE00030B505461F4887B0C16941F00401C161B6
:100AF000C06906A900F00400009001A800F036F9D2
:100B00000498B0B100F052F940001749174AB0FB01
:100B1000F1F11748491E0260416040F2E7320021BE
:100B2000C0E903218160816100F008FB040003D06B
:100B300015E000F03BF9E8E70D4800F02DFB04005C
:100B40000DD11E2000F03CF8102D07D200222946BE
:100B50001E2000F043F80748056000E0012407B0BC
:100B6000204630BD0010024040420F000008004007
:100B7000F0000020080000200F4808B5816941F00E
:100B800001018161816901F001010091C16941F0B8
:100B90008051C161C069002200F0805000900F2197
:100BA000901E00F01BF80548416821F0E06141F01B
:100BB0000071416008BD00000010024000000140CB
:100BC000002809DB00F01F0201219140400980004C
:100BD00000F1E020C0F8001170470000F0B40E4BA7
:100BE0001B680C46C3F30223C3F10705042D00D98B
:100BF0000425191D072901D2002300E0DB1E012670
:100C000006FA05F1491E214099409E40761E164085
:100C10003143F0BC00F057BF0CED00E0064900F096
:100C2000070208684FF6FF03184040EA0220034A13
:100C300010430860704700000CED00E00000FA056A
:100C40002DE9F0470F46050061D0434E306800F0B3
:100C50000700B84209D2306820F0070038433060FE
:100C6000306800F00700B84251D128683B4C81073A
:100C700012D5400703D5606840F4E06060602878D2
:100C8000000703D5606840F4605060606068A96840
:100C900020F0F000084360602878C00728D068681A
:100CA000012810D02168022810D0890700292EDAE7
:100CB000616821F0030101436160FFF7D1FC8046C8
:100CC00041F288390DE021688903EFE78901EDE7FA
:100CD000FFF7C6FCA0EB0801494502D90320BDE897
:100CE000F0876068696800F00C00B0EB810FEFD10D
:100CF000306800F00700B8420BD9306820F00700D8
:100D000038433060306800F00700B84201D001205D
:100D1000E5E72878400705D56068E96820F4E060D9
:100D2000084360602878000706D56068296920F4C8
:100D3000605040EAC100606000F048F86168084A0D
:100D4000C1F30311515CC8400649086006480068B9
:100D5000FFF7C6FE0020C2E700200240001002405C
:100D60004A32000810000020080000200F22026014
:100D70000C4A536803F003034360536803F0F00325
:100D80008360536803F4E063C36052684FF4E06328
:100D900003EAD20202610448006800F0070008601C
:100DA000704700000010024000200240044805493E
:100DB00000684968044AC1F30221515CC840704789
:100DC00010000020001002405A3200080E4A5168FC
:100DD0000E4801F00C03042B11D0082B0FD10C4846
:100DE000C1F38343C903C05C0AD55168084AC1F303
:100DF0004041921E515C054A5043B0FBF1F07047F0
:100E000004494843704700000010024000127A0075
:100E10003A32000800093D002DE9F84F040070D077
:100E20002078C04DC00749D06868C0F38100012810
:100E300007D06868C0F38100022809D16868C00340
:100E400006D52868800339D560680028E7D035E0EA
:100E50006068B0F5803F0BD010B1B0F5A02F11D075
:100E6000286820F480302860286820F4802002E080
:100E7000286840F480302860606890B1FFF7F0FB8C
:100E800006460AE0286840F480202860F0E700BFAA
:100E9000FFF7E6FB801B642873D828688003F7D52A
:100EA0000CE0FFF7DDFB064605E000BFFFF7D8FBCF
:100EB000801B6428F0D828688003F7D420789A4EE5
:100EC00080074FF001094FF0000839D5686810F02D
:100ED0000C0F07D06868C0F38100022809D1686848
:100EE000C00306D42868800714D52069012808D1DA
:100EF00010E02069B0B1C6F80090FFF7B1FB0746DB
:100F000005E00AE1FFF7ACFBC01B0228C4D8286843
:100F10008007F7D52868616920F0F80040EAC10031
:100F200028600DE0C6F80080FFF79AFB074604E052
:100F3000FFF796FBC01B022823D828688007F7D448
:100F4000207800072CD57948A169D9B1C0F8009064
:100F5000FFF786FB074604E0FFF782FBC01B022871
:100F60000FD8686A8007F7D571484FF4FA510068C6
:100F7000B0FBF1F0009000BF0098411E0091FAD242
:100F80000EE080E0C0F80080FFF76AFB074604E04F
:100F9000FFF766FBC01B022875D8686A8007F7D484
:100FA0002078400760D5E8690027C00008D4E869C8
:100FB00040F08050E861E869012700F0805000901F
:100FC0005C480168C90513D40168834641F4807107
:100FD0000160FFF745FB824606E000BFFFF740FBDC
:100FE000A0EB0A0064284ED8DBF80000C005F5D558
:100FF000E06801280AD008B1052813D0286A20F03B
:1010000001002862286A20F0040002E0286A40F00B
:1010100001002862E06841F2883B98B1FFF720FBAD
:1010200082460BE0286A40F004002862EEE700BF29
:10103000FFF716FBA0EB0A0159455AD8286A80072A
:10104000F6D50CE0FFF70CFB824605E0FFF708FB46
:10105000A0EB0A0159454CD8286A8007F6D41FB185
:10106000E86920F08050E861E06988B36968C1F3FD
:101070008101022944D00228C6F8608004D0FFF71D
:10108000EFFA044638E034E0FFF7EAFA074604E0F6
:10109000FFF7E6FAC01B02282BD828688001F7D496
:1010A000206AB0F5803F05D16868A16820F400305F
:1010B00008436860D4E908010843696821F47411A1
:1010C00008436860C6F86090FFF7CAFA044606E075
:1010D00025E000BFFFF7C4FA001B022809D82868E2
:1010E0008001F7D51BE000BFFFF7BAFA001B02280A
:1010F00002D90320BDE8F88F28688001F4D40EE0FF
:101100000128F7D06868226A00F48031914204D146
:10111000616A00F47010884201D00120EAE70020E3
:10112000E8E7000000100240000042428004424212
:1011300010000020007000407047704710B5040098
:1011400003D094F83D0010B107E0012010BD00204D
:1011500084F83C00204600F01EF8022084F83D0090
:10116000211D206800F072FC012084F8460084F8FC
:101170003E0084F83F0084F8400084F8410084F881
:10118000420084F8430084F8440084F8450084F861
:101190003D00002010BD704790F83D10012901D09E
:1011A00001207047022180F83D100168CA6842F0B2
:1011B0000102CA6000680B49884208D0B0F1804F34
:1011C00005D00949884202D00849884204D1816883
:1011D00001F00701062903D0016841F00101016017
:1011E00000207047002C014000040040000800402F
:1011F00070472DE9F04104460068C66805694FF064
:101200000007A90713D5B10711D5F91E0161012007
:101210002077206880698007204602D0FFF7E8FF2A
:1012200004E000F07EF8204600F07CF8277768079D
:1012300016D5700714D521686FF0040008610220EC
:1012400020772068806910F4407F204602D0FFF7A5
:10125000CFFF04E000F065F8204600F063F8277740
:10126000280715D5300713D521686FF008000861ED
:10127000042020772068C0698007204602D0FFF74D
:10128000B7FF04E000F04DF8204600F04BF8277758
:10129000E80616D5F00614D521686FF01000086135
:1012A000082020772068C06910F4407F204602D0D3
:1012B000FFF79EFF04E000F034F8204600F032F81B
:1012C0002777E80708D0F00706D021686FF0010003
:1012D0000861204600F028F8280608D5300606D513
:1012E00021686FF0800008612046FFF725FF68063F
:1012F00008D5700606D521686FF0400008612046C9
:1013000000F01CF8A8060AD5B00608D521686FF0D1
:10131000200008612046BDE8F041FFF70EBFBDE8A0
:10132000F08170477047000000680349884201D18E
:10133000FFF7BCBB70470000000800407047FEE7A5
:1013400001684A69D24352050FD46FF480624A6142
:10135000002140F8301F202242738173026942F05D
:1013600004020261017301207047002070470000F1
:10137000F8B50446C06A1E460D461746082807D031
:10138000012805D010F5803F02D0206B122804D12F
:101390002068016841F480710160134600224FF01B
:1013A00001112046009600F0B1F840B120680068B5
:1013B000C00502D54FF4007020640320F8BD2069F9
:1013C000B0F5804F0ED00620216800EAD51040F01D
:1013D000F000086133463A460B49204600F0DEF83B
:1013E00078B902E005F0FE0000E0E8B2216808618B
:1013F000054933463A46891F204600F0CFF80028B9
:10140000DCD00120F8BD0000080001002DE9F84300
:10141000044600680D46DDE90897016898461646BF
:1014200041F4807101604B4600224FF001112046CB
:10143000009700F06BF848B120680068C00502D53D
:101440004FF4007020640320BDE8F883216805F0A4
:10145000FE0008613B464A461549204600F09EF8CA
:1014600088B920684169806900903A46494620461B
:1014700000F0F2F848B1206C042804D1206801681B
:1014800041F4007101600120DEE7F5B2B8F1010F0F
:1014900009D02168300A08613A464946204600F0E2
:1014A000DBF80028E7D1206805610020CCE70000C8
:1014B0000200010070B516460D4604461EE02046A7
:1014C000FFF73EFF08B1012070BD681C16D0FFF782
:1014D000C7F8801BA84200D885B920684069C0437E
:1014E00040070BD5002044F8300F20216173A07312
:1014F000216941F0200121612073E4E720684069FF
:10150000C0434007DBD4002070BD00002DE9F04748
:10151000984617460D460446C1F30746DDF820906D
:101520002AE000BFB8F1FF3F26D0FFF799F8A0EB03
:101530000901414502D8B8F1000F1DD12068012EE4
:1015400016D0806925EA00000004000C12D00020AB
:10155000B84211D1002044F8300F20216173A073EC
:10156000216941F02001216120730120BDE8F0874D
:101570004069E7E70120EBE72068012E0AD0806987
:1015800025EA00000004000C06D00020B842C9D0B3
:101590000020EBE74069F3E70120F7E72DE9F0478A
:1015A000984616460D4604464FF000094FF0200AB3
:1015B000C1F3074723E020684069C043400515D4C4
:1015C0002068016841F40071016021686FF4806057
:1015D0004861C4F8309084F83DA084F83E90216CB6
:1015E00041F00401216484F83C9021E0701C06D095
:1015F000FFF736F8A0EB0800B04203D816B1012F70
:101600001FD021E02068012F15D0806925EA000055
:101610000004000C18D000BF44F8309F84F80DA0DF
:1016200084F80E90216941F02001216184F80C902A
:101630000120BDE8F087406925EA00000004000CA5
:10164000EAD12068406901E02068806925EA00004D
:101650000004000CAFD1ECE770B516460D46044609
:101660001EE02046FFF76CFE08B1012070BD681C2B
:1016700016D0FEF7F5FF801BA84200D885B9206878
:101680004069C04300060BD5002044F8300F2021EC
:101690006173A073216941F0200121612073E4E7A7
:1016A00020684069C0430006DBD4002070BD00F014
:1016B00047B9000010B5044A0021044800F050FA70
:1016C0000349086010BD000014320008C119000869
:1016D0000000002070B586B000241C4800940194DE
:1016E00002940394816941F010018161816901F0E4
:1016F00010010491816941F020018161816901F04B
:1017000020010491816941F004018161816901F046
:1017100004010491816941F00801816180690C4EE6
:1017200000F008004FF4005504900022294630468E
:10173000FEF790FF01200095CDE9010402200390FF
:1017400069463046FEF796FE06B070BD00100240B6
:10175000001001400D4810B50B4901600C49416073
:1017600000214FF480428160C0E903124161816130
:10177000C1610162FEF77AFF002803D0BDE8104086
:10178000FEF775BE10BD0000005400409C00002014
:10179000A0860100FEE7FEE710B5A0B0002480217E
:1017A0006846FEF7AAFD0021204600F0A9F8802136
:1017B000684600F0F5F8641CE4B2082CF3D320B0BE
:1017C00010BD000010B50224202000F0D5F82046FE
:1017D00000F0D2F81F4804703F24A82000F0CCF895
:1017E000204600F0C9F80024D32000F0C5F82046B8
:1017F00000F0C2F8402000F0BFF8A12000F0BCF8D3
:10180000C82000F0B9F80021084600F063F87F24F2
:10181000812000F0B1F8204600F0AEF8A42000F0DE
:10182000ABF8A62000F0A8F8D52000F0A5F880209D
:1018300000F0A2F88D2000F09FF8142000F09CF832
:101840000021012000F046F8BDE81040AF2000F074
:1018500093B80000940000202DE9F04117460E4691
:10186000044600250BE03146204600F00FF8641CCA
:10187000E4B20F2C02D90024B61CF6B26D1C7A5DBE
:10188000002AF0D12846BDE8F081000070B5164668
:10189000C206150E0C46072918D80F2816D8294657
:1018A000204600F02DF80A48082100EB06100646F5
:1018B00000F076F8641CE0B2294600F021F806F149
:1018C0000800BDE87040082100F06AB870BD000053
:1018D0006232000870B50C46050001D0012D0ED112
:1018E0000CB1012C0BD1DA2000F046F8280100EBF6
:1018F0004410BDE87040801CC0B200F03DB870BD1F
:1019000070B50E4D0C462978022905D1072803D859
:10191000B030C0B200F030F8287802280CD17F2C0B
:101920000AD804F00F0000F027F8102000EB141084
:10193000BDE8704000F020B870BD000094000020A9
:10194000FFF740FFFFF728FF002141220846FFF77D
:101950009DFF592200210120FFF798FF02A20221DA
:101960000020FFF779FFEFE748656C6C6F20576F39
:10197000726C6421000000001CB500218DF8041079
:101980008DF805004FF4FA7000900448022301AA74
:1019900078214068FEF72EFF1CBD00009400002057
:1019A0000EB54FF4FA728DE8070004480123402277
:1019B00078214068FEF7B4FF0EBD000094000020BF
:1019C000FFF775FEFCE710B54FF0E020006901F06D
:1019D0006BFA012803D0BDE8104000F099BF10BD9C
:1019E00030B58FB028216846FEF787FC14210AA87D
:1019F000FEF783FC01210804CDE9001000240294C5
:101A000002250491CDE907504FF4E0100990684693
:101A1000FFF702FA08B172B6FEE70F20CDE90A051A
:101A20004FF48060CDE90C4002210AA80E94FFF724
:101A300007F9002801D072B6FEE70FB030BD70473D
:101A40000148FFF7D6BB0000F0000020F0B50268A7
:101A5000194B1A4C1A4D4FF08047984205D0B842A6
:101A600003D0A04201D0A84203D122F070064A68F8
:101A70003243984205D0B84203D0A04201D0A842D8
:101A800003D122F44074CA6822434C6922F08002D8
:101A9000224302608A68C2620A688262984201D167
:101AA00009690163012141610169C90703D0016925
:101AB00021F001010161F0BD002C01400004004053
:101AC00000080040FEE70907090E002804DB00F1CA
:101AD000E02080F80014704700F00F0000F1E020D3
:101AE00080F8141D7047FEF7E9FFFFF779FFFFF755
:101AF000F1FDFFF72FFE00F005F8FFF7DBFD00F02A
:101B000013F8FEE7EFF3058010B16FF005007047A2
:101B10000448016811B14FF0FF30704701210160A6
:101B2000002070476400002010B5EFF3058010B16D
:101B30006FF0050010BD08480168012902D04FF080
:101B4000FF3010BD054A002182F8141D02210160FA
:101B500000F00CFE002010BD640000200BE000E04F
:101B60002DE9FF414FEA01034FF00005EFF3058136
:101B7000039549BB40B38027182100244AB3166857
:101B800006B1344696691EB13146761E382E02D211
:101B90001679F60703D0002004B0BDE8F08156693D
:101BA00006B1B708D2F808C0BCF1000F0DD0D56857
:101BB0005C2D18D312693AB136B18DE806103A4659
:101BC000214601F046F903900DE0D6685EB912692E
:101BD0004AB903AACDE90012BAB2214601F00CF9C4
:101BE000012800D003950398D6E700002DE9F041C5
:101BF000134C0F460546E6682068001D00F040FCC7
:101C0000681C07D137B12168BDE8F0410D48091DB6
:101C100000F086BC20683544B5424560216805D295
:101C2000A06BBDE8F041091D00F062BC606B091DAE
:101C300000F05EFCA06A854200D2A562BDE8F0819A
:101C400014000020280600202DE9F041054600F090
:101C500073FC2D4CA068401CA06020682B4F10B175
:101C6000606930B32BE02560A068012827D10026E9
:101C700006EB860007EB800000F02CFC761C382E6B
:101C8000F6D3234800F026FC2148143000F022FC53
:101C90001F48283000F01EFC1D483C3000F01AFCA4
:101CA0001B48503000F016FC194860631430A063E4
:101CB00005E02068E96AC06A884200D82560606A49
:101CC000401C60626864E86A2169884200D920612A
:101CD00000EB800007EB8000291D00F021FC00F0E4
:101CE0004BFC606900280CD02068E96AC06A884211
:101CF00007D208494FF080500860BFF34F8FBFF301
:101D00006F8FBDE8F08100001400002078010020F2
:101D1000D805002004ED00E038B500F00DFC104CB3
:101D20002068C8B90F4800F0D5FB0E48143000F009
:101D3000D1FB0C48E060143020610A4B0020F03BDE
:101D4000009003F1500210210A2000F0F7FD2060FE
:101D500010B105A100F092FCBDE8384000F00CBCC9
:101D6000500000202C070020546D7251000000002C
:101D700030B4026C0B46002A0BD0C1681144C1601C
:101D80008468A14201D30168C16030BC1846FEF7E7
:101D900067BA30BC70472DE9F041856B17460446A1
:101DA0000026026C82B1C7B1E068FEF759FAE1681B
:101DB000206C091AE1602268914202D2A168081AD7
:101DC000E060022F16D017E02068A8B9A06801F0E3
:101DD000E3F806460020A0600EE06068FEF740FAD7
:101DE000216C606808446060A168884204D3206860
:101DF000606001E005B16D1E6D1CA5633046BDE855
:101E0000F08110B5044690F8590058B101280CD063
:101E100002280FD0502080F31188BFF34F8FBFF3FB
:101E20006F8FFEE7206B00F0BBFB2046BDE8104043
:101E300000F0B6BB10BD000010484FF440614207EF
:101E400006D0C01D0D4920F00700411AC1F54061C0
:101E50000B4A00230144C2E900030839183A21F073
:101E6000070111604B600B600B1AC0E9001393600F
:101E70004FF0004053605061704700000C0E00208E
:101E800080000020144E154CA6F29C474FF080585D
:101E9000DFF84C9012E000BF00F04EFBF068C56820
:101EA000281D00F0EDFAA068401EA0606068401E8A
:101EB000606000F061FB2846FFF7A3FF6068002820
:101EC000EAD138680128F9D9C9F80080BFF34F8FEB
:101ED000BFF36F8FF2E7000014060020140000200B
:101EE00004ED00E070B51D46049C51B1C4F800201B
:101EF000C4E90F010121204600F054FD84F84C5044
:101F000070BD2460F4E700002DE9F05F8846DDE94C
:101F10000B941546834691009A460A9EA522206B93
:101F2000FEF7E3F96FF00301206B01EB8501084434
:101F300020F00707780707D0502080F31188BFF3FF
:101F40004F8FBFF36F8FFEE70025B8F1000F0FD062
:101F50005FF00000221818F8001082F8341018F80A
:101F6000001011B1401C1028F4D384F8435001E054
:101F700084F83450382E00D33726E662C4E913655E
:101F8000201D00F0B2FA04F1180000F0AEFA24614E
:101F9000C6F138006462A061656584F85850524605
:101FA0005946384600F05AFA2060B9F1000F01D0C6
:101FB000C9F80040BDE8F09F30B5114900E0114676
:101FC0000A688242FBD34B685C18844203D14068A4
:101FD00018444860084643681C18944209D1084CCC
:101FE000183C2468A24209D052681A4442600A6828
:101FF00012680260814200D0086030BD0460F9E7D9
:102000008000002070B5002441600B4D00619142BA
:1020100006D8D11A8269914206D2011D286907E0CB
:102020009A4203D2994201D3012403E0011DE868DA
:1020300000F05EFA204670BD5000002010B5044646
:1020400000F07AFAA06B28B15FF0000400F094FA77
:10205000204610BD0124F9E730B589B03C4D6EE053
:102060000498002806DADDE90601059A90470498ED
:10207000002864DB069C606910B1201D00F000FAA6
:1020800003A800F0D7F8024604980A2857D2DFE8E0
:1020900000F00505052D334A05052D3394F8280079
:1020A00040F0010084F828000599A069059B0144CF
:1020B0002046FFF7A7FF68B3216A2046884794F8B7
:1020C000280040073BD5002000900598A169002317
:1020D00042181946204601F069F8D8B9502080F31B
:1020E0001188BFF34F8FBFF36F8FFEE714F8280FEF
:1020F00020F00100207022E094F8280040F0010058
:1021000084F828000598A06128B18118134620465C
:10211000FFF778FF13E0502080F31188BFF34F8F53
:10212000BFF36F8FFEE794F82800810703D42046A1
:1021300000F036FA03E020F0010084F828000022C5
:1021400004A9286800F082FD002889D109B030BDBB
:10215000500000202DE9FC410F46054600F04AFBE7
:1021600001A800F067F80446019818B100F08CFF50
:10217000BDE8FC81254EAFB130690068D0B30027BF
:10218000291B3A46306800F08DFA00F07DFF0028E8
:10219000EED11F494FF080500860BFF34F8FBFF35F
:1021A0006F8FE5E7A542EBD800F06EFFF068274699
:1021B000C068C468201D00F063F994F82800410746
:1021C00019D5A0692B4641193A462046FFF71AFF58
:1021D000A8B100200346014600902A46204600F0A0
:1021E000E5FF60B9502080F31188BFF34F8FBFF334
:1021F0006F8FFEE707E020F0010084F82800216AD5
:1022000020468847B4E70127BAE7000050000020C5
:1022100004ED00E00648416B096829B1416BC968CB
:10222000C9684968816270474FF0FF31FAE70000E2
:102230001400002070B5054600F044FE064E04462A
:10224000B068844203D200F009F8012000E00020C9
:1022500028602046B46070BD50000020F8B5194DCC
:1022600020E0C068C4680668201D00F009F9216AF2
:102270002046884794F82800400713D5A0693044C9
:10228000B04206D924616060211DE86800F030F991
:1022900008E000200346014600903246204600F048
:1022A00085FF38B1E86801680029DAD12969C5E9F4
:1022B0000310F8BD502080F31188BFF34F8FBFF398
:1022C0006F8FFEE75000002008484068401C4FF028
:1022D000500080F3118804D0BFF34F8FBFF36F8F8E
:1022E000FEE7BFF34F8FBFF36F8FFEE7880000203C
:1022F000074CE068016841B1C0680021D0F80000D7
:10230000FFF728FFFFF7A8FEF3E701210020F7E71A
:10231000500000202DE9F041044600F00DF994F939
:10232000455004F1240609E0606A48B1304600F0E7
:1023300073FE08B100F0E0F96D1E6DB2002DF3DC04
:102340004FF0FF3684F8456000F016F900F0F4F81D
:1023500094F9445004F1100709E0206948B1384667
:1023600000F05AFE08B100F0C7F96D1E6DB2002DE5
:10237000F3DC84F84460BDE8F04100F0FDB80000F3
:102380002DE9F0410546002700F034FA324E30685E
:1023900008B9FFF751FD706905424ED1C5B3083544
:1023A00068070ED005F00700C0F108000544680773
:1023B00007D0502080F31188BFF34F8FBFF36F8F8A
:1023C000FEE72DB37068854237D8234818300146A0
:1023D0000C6801E020460C466168A94202D22168DF
:1023E0000029F7D131688C4227D007682168016045
:1023F00060680837411B10290FD96019420708D0BF
:10240000502080F31188BFF34F8FBFF36F8FFEE72B
:1024100013E041606560FFF7CFFD61687068401AA6
:102420007060B268904200D2B060706901430020D1
:10243000C4E90001F068401CF06000F025FE780758
:1024400007D0502080F31188BFF34F8FBFF36F8FF9
:10245000FEE73846BDE8F0816800002010B5031F94
:102460004FF080741C601B1F21F001011960191FBF
:10247000024B0B60143940380A6010BDC9220008B5
:10248000D0E9013201699A60D0E901235A604A68B3
:10249000824201D182684A60002202610868401EBF
:1024A0000860086870470000034B036003F15C009C
:1024B000086080201060704754070020044B0360C0
:1024C00003F15C0008604FF48070106070470000FA
:1024D000B009002000F108014FF0FF32C0E90112FD
:1024E000C1600161002101607047002101617047F6
:1024F00030B50B685A1C02D000F1080202E00269F4
:1025000004E02246546825689D42FAD953684B601E
:1025100099608A60516008610168491C016030BDA2
:1025200042684A6093688B60936859609160086163
:102530000168491C01607047502080F31188BFF387
:102540004F8FBFF36F8F0A494868401C48600128CD
:102550000CD10848006810F0FF0F07D0502080F31E
:102560001188BFF34F8FBFF36F8FFEE770470000F6
:102570008800002004ED00E00849486828B1401EAA
:10258000486001D180F311887047502080F3118892
:10259000BFF34F8FBFF36F8FFEE70000880000206E
:1025A00070B500282AD0164DA0F10804606869694A
:1025B000084207D1502080F31188BFF34F8FBFF33B
:1025C0006F8FFEE722683AB1502080F31188BFF385
:1025D0004F8FBFF36F8FFEE78843606000F00AF90A
:1025E00060686968084468602046FFF7E5FC286970
:1025F000401C2861BDE8704000F046BD70BD000081
:10260000680000204FF0E020002101618161054950
:102610004FF47A720968B1FBF2F1491E416107215A
:10262000016170471000002010B5FDF7F5FD11495C
:1026300010280ED300F1E02090F8F0030A789042C1
:1026400007D2502080F31188BFF34F8FBFF36F8FF5
:10265000FEE709480068896800F4E060884207D90D
:10266000502080F31188BFF34F8FBFF36F8FFEE7C9
:1026700010BD0000880000200CED00E010B5084BF4
:10268000002200BF53F832401CB1521C082AF9D373
:1026900010BD43F8321003EBC201486010BD0000CA
:1026A0003801002070B515460E460446FFF744FF7A
:1026B00094F944100020491C01D184F8440094F995
:1026C0004510491C01D184F84500FFF755FFA06B68
:1026D00028B92A46314604F1240000F02BF82046A0
:1026E000BDE87040FFF716BE02490A6A0260C96879
:1026F000416070471400002001490120C861704703
:102700001400002010B50C4650B109490968183171
:10271000FFF7EEFE2046BDE810400121FFF766BA44
:10272000502080F31188BFF34F8FBFF36F8FFEE708
:102730001400002070B514460D4668B10A490968B6
:102740001831FFF7EDFE0CB14FF0FF35214628465A
:10275000BDE87040FFF74ABA502080F31188BFF3FC
:102760004F8FBFF36F8FFEE71400002030B587B0A6
:102770000024039405AA04A903A80494FFF794FE77
:10278000DDE903010094CDE90110002315A11748EC
:10279000059A00F05EFB164D0028E8621FD000F09D
:1027A000D5FC012809D0401C19D1502080F3118894
:1027B000BFF34F8FBFF36F8FFEE7502080F3118878
:1027C000BFF34F8FBFF36F8F4FF0FF30A862012030
:1027D0006861EC6007B0BDE8304000F045B807B074
:1027E00030BD000049444C4500000000851E000833
:1027F000140000200248016B491C0163704700006F
:1028000014000020164810B5016B11B10121C161FF
:1028100010BD0021C1610169124A01E0B9B1491E30
:1028200001EB810352F82330002BF7D001EB810339
:1028300002EB830202F1080453685B685360A34211
:1028400001D15B685360DA680260016110BD5020FD
:1028500080F31188BFF34F8FBFF36F8FFEE7000047
:1028600014000020780100201CB52649087801904A
:10287000FF20087008788DF800009DF800009DF892
:10288000002000F0F000904207D0502080F3118823
:10289000BFF34F8FBFF36F8FFEE79DF800001A4C18
:1028A00000F0500020700720A06005E09DF8002097
:1028B00052008DF80020401E9DF800201206F5D42D
:1028C000A060032807D0502080F31188BFF34F8FFA
:1028D000BFF36F8FFEE74FF44070A060019808705F
:1028E0000A48016841F470010160016841F07041DB
:1028F0000160FFF787FE00206060FDF757FC0020B5
:102900001CBD000000E400E08800002020ED00E095
:1029100010B5502080F31188BFF34F8FBFF36F8F36
:1029200000F0D6FA18B104494FF08050086000203A
:1029300080F3118810BD000004ED00E038B5049D5F
:1029400018B153B1CAB181B120E0502080F3118891
:10295000BFF34F8FBFF36F8FFEE7502080F31188D6
:10296000BFF34F8FBFF36F8FFEE7502080F31188C6
:10297000BFF34F8FBFF36F8FFEE739B1502080F365
:102980001188BFF34F8FBFF36F8FFEE750241C46B3
:10299000012384F846302B460094FFF7A3FA204623
:1029A00038BD000070B50D46040025D0FFF7C4FD0A
:1029B000D4E90F20216802FB0011A1600021A1636E
:1029C000216861600A46D4E90F01401E00FB012125
:1029D000E16021464FF0FF3001F8440F487004F1E8
:1029E00010008DB1FFF776FD04F12400FFF772FDB2
:1029F000FFF7C2FD012070BD502080F31188BFF3A6
:102A00004F8FBFF36F8FFEE721690029F0D000F0F0
:102A100003FB0028ECD004494FF080500860BFF35E
:102A20004F8FBFF36F8FE3E704ED00E02DE9FF4721
:102A300082B01D468A464FF00008040003D0BAF168
:102A4000000F08D011E0502080F31188BFF34F8FA2
:102A5000BFF36F8FFEE7206C38B1502080F31188F0
:102A6000BFF34F8FBFF36F8FFEE7022D0AD1E06BEC
:102A7000012807D0502080F31188BFF34F8FBFF398
:102A80006F8FFEE700F010FA3F4F4FF000094FF054
:102A9000805648B9049838B1502080F31188BFF3AC
:102AA0004F8FBFF36F8FFEE7FFF746FDA06BE16B23
:102AB000884207D3022D05D00498D0B1B8F1000F99
:102AC0001AD01EE02A4651462046FFF764F9616A93
:102AD00019B104F1240000F09FFA20B13E60BFF369
:102AE0004F8FBFF36F8FFFF747FD012006B0BDE8A2
:102AF000F087FFF741FD22E06846FFF7F5FD4FF054
:102B00000108FFF739FDFFF775FEFFF715FD94F992
:102B10004400401C01D184F8449094F94500401CC5
:102B200001D184F84590FFF727FD04A9684600F01D
:102B300029F930B12046FFF7EDFB00F0A5FA00209F
:102B4000D4E7FFF7F9FCA06BE16B884213D1FFF7E4
:102B500013FD04F110000499FFF7D4FD2046FFF7A0
:102B6000D9FB00F091FA00289ED13E60BFF34F8F51
:102B7000BFF36F8F98E7FFF7FFFC2046FFF7CAFB14
:102B800000F082FA90E7000004ED00E02DE9F04744
:102B90001F4690468946040003D0B9F1000F08D0C3
:102BA00011E0502080F31188BFF34F8FBFF36F8F78
:102BB000FEE7206C38B1502080F31188BFF34F8FAF
:102BC000BFF36F8FFEE7022F0AD1E06B012807D019
:102BD000502080F31188BFF34F8FBFF36F8FFEE754
:102BE000FFF722FD5020EFF3118680F31188BFF329
:102BF0004F8FBFF36F8FA06BE16B884206D3022F1C
:102C000004D0002086F31188BDE8F08794F9455080
:102C1000A06B3A4649462046FFF7BDF8681C04D031
:102C20006D1C84F845500120ECE7606A0028FAD05A
:102C300004F1240000F0F0F90028F4D0B8F1000FFE
:102C4000F1D00121C8F80010EDE700002DE9F747A9
:102C5000002683B08A46040003D0BAF1000F08D0E2
:102C600011E0502080F31188BFF34F8FBFF36F8FB7
:102C7000FEE7206C38B1502080F31188BFF34F8FEE
:102C8000BFF36F8FFEE700F00FF9DFF8F4804FF02D
:102C900000094FF0805748B9059838B1502080F3AB
:102CA0001188BFF34F8FBFF36F8FFEE7FFF744FC30
:102CB000A56BC5B151462046FFF75AF86D1EA563B6
:102CC000206950B104F1100000F0A6F928B1C8F84D
:102CD0000070BFF34F8FBFF36F8FFFF74DFC0120E4
:102CE00006B0BDE8F087059808B11EB106E0FFF711
:102CF00043FC27E06846FFF7F7FC0126FFF73CFCA2
:102D0000FFF778FDFFF718FC94F94400401C01D14F
:102D100084F8449094F94500401C01D184F8459012
:102D2000FFF72AFC05A9684600F02CF80028204689
:102D30000AD0FFF7EFFA00F0A7F92046FFF77EF977
:102D40000028B3D00020CBE7FFF778F990B104F169
:102D500024000599FFF7D6FC2046FFF7DBFA00F0C8
:102D600093F90028A2D1C8F80070BFF34F8FBFF3CA
:102D70006F8F9BE72046FFF7CDFA00F085F995E7C6
:102D800004ED00E02DE9F0410C46050011D0C4B17E
:102D9000FFF7D2FB174BDA686E682068911B471C5F
:102DA00017D02F681B6A9F4219D0964217D801246A
:102DB00010E0502080F31188BFF34F8FBFF36F8F67
:102DC000FEE7502080F31188BFF34F8FBFF36F8F62
:102DD000FEE70024FFF7D0FB2046BDE8F0818842E3
:102DE00005D9401A20602846FFF77EFCF1E7002055
:102DF0002060DCE7140000202DE9FF5F8346DDE959
:102E00000E87994616468A469000FFF7B9FA0500E4
:102E10001CD05C20FFF7B4FA040014D00020256316
:102E200084F85900CDE90240CDE900874B4632468F
:102E300051465846FFF768F82046FEF705FF012087
:102E400004B0BDE8F09F2846FFF7AAFB4FF0FF3023
:102E5000F6E7F0B585B0DDE90B640A9DA6B1DCB1FB
:102E60005C2700972663022684F85960002604AF89
:102E7000CDE90246CDE90057FFF746F82046FEF7B8
:102E8000E3FE049805B0F0BD502080F31188BFF335
:102E90004F8FBFF36F8FFEE7502080F31188BFF391
:102EA0004F8FBFF36F8FFEE70548416919B1006B83
:102EB00018B10020704701207047022070470000C1
:102EC000140000200148C068704700001400002072
:102ED0002DE9F0412E4C0027206B28B1A069401C41
:102EE000A0613846BDE8F081E668761CE66013D143
:102EF000606B006838B1502080F31188BFF34F8FAA
:102F0000BFF36F8FFEE7606BA16B6163A063206A04
:102F1000401C2062FFF77EF9A06ADFF878808642C5
:102F200009D3606B0068A0B1606BC068C568686851
:102F3000864211D2A0622068C06A00EB800158F876
:102F40002100012800D90127E0690028C9D0012704
:102F5000C7E74FF0FF30EDE7281DFFF791FAA86AA9
:102F600018B105F11800FFF78BFAE86A2169884269
:102F700000D9206100EB800108EB8100291DFFF7DB
:102F8000CFFAE86A2168C96A8842CAD30127C8E72C
:102F9000140000207801002070B504004FF00001FB
:102FA00033D01B4D2868844207D0502080F311880D
:102FB000BFF34F8FBFF36F8FFEE7206D38B1401E18
:102FC0002065E36CE26A9A421FD040B11DE05020B8
:102FD00080F31188BFF34F8FBFF36F8FFEE7201D83
:102FE000FFF74EFAE06CE062C0F13800A061E06AE1
:102FF0002969884200D92861064900EB800001EB6D
:103000008000211DFFF78CFA0121084670BD0000E9
:10301000140000207801002070B5C068C46854B165
:1030200004F118000646FFF72BFA144D286B50B137
:103030003146134815E0502080F31188BFF34F8FBD
:10304000BFF36F8FFEE7201DFFF71AFAE06A2969C8
:10305000884200D928610B4900EB800001EB800019
:10306000211DFFF75DFAE06A2968C96A884202D922
:103070000120E86170BD002070BD00001400002038
:1030800000060020780100202DE9F0472C4D002497
:103090002746286B38B1FFF74FFA286B401E28638C
:1030A000286B40B146E0502080F31188BFF34F8F6A
:1030B000BFF36F8FFEE7A968224E0120D1B3A6F5BA
:1030C000916980463068E0B1F068C46804F1180086
:1030D000FFF7D6F9201DFFF7D3F9E06A2969884286
:1030E00000D9286100EB800109EB8100211DFFF769
:1030F00017FAE06A2968C96A8842E3D3C5F81C80D8
:10310000E0E70CB1FFF786F8AC694CB14FEA08066E
:10311000FFF7DEFE00B1EE61641EF9D10020A86168
:10312000E86938B10849012738070860BFF34F8FB5
:10313000BFF36F8FFFF720FA3846BDE8F087000035
:10314000140000200006002004ED00E010B586B059
:10315000FEF7E2FD114C2068B8B100200390049006
:1031600005AA04A903A8FFF7A9F9DDE903210220B4
:103170008DE8070000230AA10B48059AFFF769FEB6
:10318000606010B106B0012010BD502080F311889E
:10319000BFF34F8FBFF36F8FFEE70000500000209A
:1031A000546D722053766300F12200082DE9FF412F
:1031B0001E46134602000A9D4FF0000016D0144C24
:1031C0002768002F0FD0CDE900130292062917DAE5
:1031D000FFF76AFE02284FF000030FD00022694675
:1031E0002068FFF723FC04B0BDE8F081502080F395
:1031F0001188BFF34F8FBFF36F8FFEE72A46EEE7CC
:103200000023324669463846FFF7C0FCEBE7000072
:1032100050000020643A0008000000000000000098
:103220000000000000000000000200001800000084
:103230000000000000000000010202030405060770
:1032400008090A0B0C0D0E0F101000000000000002
:103250000000010203040607080900000000010243
:103260000304000000000000000000000000000057
:10327000000000FE020202020202003F2020202085
:1032800020200000000000000000000000000000FE
:10329000000000FE020202020202003F2020202065
:1032A000202000FE020202020202003F2020202015
:1032B000202000FE020202020202003F2020202005
:1032C000202000FE020202020202003F20202020F5
:1032D000202000FE020202020202003F20202020E5
:1032E000202000FE020202020202003F20202020D5
:1032F000202000000000000000000000000000008E
:1033000000000000000000000000000000000000BD
:1033100000000000000000000000000000000000AD
:10332000000000FE020202020202003F20202020D4
:10333000202000FE020202020202003F2020202084
:10334000202000FE020202020202003F2020202074
:10335000202000FE020202020202003F2020202064
:10336000202000FE020202020202003F2020202054
:10337000202000FE020202020202003F2020202044
:10338000202000FE020202020202003F2020202034
:10339000202000FE020202020202003F2020202024
:1033A000202000FE020202020202003F2020202014
:1033B000202000FE020202020202003F2020202004
:1033C000202000FE020202020202003F20202020F4
:1033D000202000FE020202020202003F20202020E4
:1033E000202000FE020202020202003F20202020D4
:1033F000202000FE020202020202003F20202020C4
:10340000202000FE020202020202003F20202020B3
:10341000202000FE020202020202003F20202020A3
:10342000202000000000000000000000000000005C
:10343000000000000000000000000000000000008C
:10344000000000000000000000000000000000007C
:10345000000000000000000000000000000000006C
:10346000000000000000000000000000000000005C
:103470000000000000F80000000000000033000021
:10348000000000100C02100C020000000000000000
:1034900000000040C07840C0780000043F04043FB2
:1034A000040000708888FC08300000182020FF21EC
:1034B0001E00F008F0806018000000310C031E218F
:1034C0001E0000F00888700000001E21232C192720
:1034D000211000120E00000000000000000000009B
:1034E0000000000000E0180402000000000718209F
:1034F000400000020418E00000000040201807000F
:103500000000404080F0804040000202010F0102B4
:10351000020000000000E0000000000101010F01B6
:103520000101000000000000000000907000000099
:103530000000000000000000000000010101010186
:10354000010000000000000000000030300000001A
:10355000000000000000C0380400006018070000F0
:10356000000000E010080810E000000F10202010FC
:103570000F0000001010F8000000000020203F2085
:103580002000007008080808F000003028242221DC
:10359000300000300808088870000018202121221F
:1035A0001C000000804030F8000000060524243F85
:1035B000242400F888888808080000192020201199
:1035C0000E0000E0108888900000000F11202020DD
:1035D0001F0000180808886818000000003E01005D
:1035E00000000070880808887000001C2221212239
:1035F0001C0000F008080810E0000001122222114F
:103600000F00000000C0C0000000000000303000CB
:1036100000000000008000000000000000E000004A
:103620000000000080402010080000010204081083
:1036300020000040404040404000000202020202E0
:103640000200000810204080000000201008040242
:103650000100007048080888700000000030370042
:103660000000C030C828E810E000071827282F28DD
:1036700017000000C038E0000000203C23020227B1
:10368000382008F8888888700000203F202020110A
:103690000E00C03008080808380007182020201045
:1036A000080008F808080810E000203F202020103B
:1036B0000F0008F88888E8081000203F2020232009
:1036C000180008F88888E8081000203F2000030050
:1036D0000000C03008080838000007182020221E0B
:1036E000020008F808000008F808203F2101012125
:1036F0003F20000808F8080800000020203F202094
:10370000000000000808F8080800C08080807F00E2
:10371000000008F888C028180800203F200126383B
:10372000200008F8080000000000203F2020202092
:10373000300008F8F800F8F80800203F013E013F8B
:10374000200008F830C00008F808203F20000718C3
:103750003F00E01008080810E0000F1020202010A3
:103760000F0008F808080808F000203F21010101B7
:103770000000E01008080810E0000F102828305062
:103780004F0008F8888888887000203F2000030CCC
:1037900030200070880808083800003820212122D5
:1037A0001C00180808F8080818000000203F200036
:1037B000000008F808000008F808001F202020205A
:1037C0001F000878880000C83808000007380E017C
:1037D000000008F800F800F8080000033E013E036E
:1037E0000000081868808068180820302C03032C1B
:1037F00030200838C800C83808000000203F2000EA
:10380000000010080808C8380800203826212020A9
:103810001800000000FE020202000000007F40408D
:103820004000000438C0000000000000000106381D
:10383000C00000020202FE000000004040407F0085
:10384000000000000402020400000000000000006C
:103850000000000000000000000080808080808068
:103860008080000202040000000000000000000050
:103870000000000080808000000000192424123F16
:10388000200010F0008080000000003F1120201177
:103890000E000000008080800000000E112020201B
:1038A0001100000080808090F000001F2020201078
:1038B0003F200000808080800000001F24242424FA
:1038C0001700008080E0909020000020203F202002
:1038D00000000000808080808000006B94949493AE
:1038E000600010F0008080800000203F2100002058
:1038F0003F2000809898000000000020203F2020FA
:103900000000000000809898000000C08080807F48
:10391000000010F0000080808000203F2406293045
:103920002000001010F8000000000020203F2020A0
:1039300000008080808080808000203F20003F2029
:10394000003F8080008080800000203F2100002018
:103950003F200000808080800000001F2020202069
:103960001F00808000808000000080FF91202011D7
:103970000E000000008080008000000E11202091C9
:10398000FF80808080008080800020203F212000F8
:1039900001000000808080808000003324242424E3
:1039A0001900008080E0808000000000001F2020BF
:1039B00010008080000000808000001F2020201068
:1039C0003F20808080008080800000030C300C034A
:1039D00000008080008080008080010E300C07385D
:1039E000060100808080008080000020310E2E3192
:1039F000200080808000008080800081867818060A
:103A0000010000808080808080000021302C2221F5
:103A100030000000000000FC020200000000013E37
:103A2000404000000000FF00000000000000FF0018
:103A300000000202FC000000000040403E010000C7
:103A40000000000201020204020000000000000069
:103A50000000000000000000000000000000000066
:103A60000000000064656661756C745461736B00DE
:103A7000903A0008000000209C0000002801000887
:103A80002C3B00089C000020D41F000044010008CB
:103A90000000000001000000100000000000000015
:103AA00000127A000000000000000000000000008A
:103AB0000000000000000000000000000000000006
:103AC00000000000000000000000000000000000F6
:103AD00000000000000000000000000000000000E6
:103AE00000000000000000000000000000000000D6
:103AF00000000000000000000000000000000000C6
:103B000000000000000000000000000000000000B5
:103B1000000000000000000000000000AAAAAAAAFD
:0C3B200000000000020000009C000020DB
:04000005080000ED02
:00000001FF
